{
    "contractName": "B2Stake",
    "abi": [
        {
            "inputs": [],
            "stateMutability": "nonpayable",
            "type": "constructor"
        },
        {
            "inputs": [
                {
                    "internalType": "address",
                    "name": "owner",
                    "type": "address"
                }
            ],
            "name": "OwnableInvalidOwner",
            "type": "error"
        },
        {
            "inputs": [
                {
                    "internalType": "address",
                    "name": "account",
                    "type": "address"
                }
            ],
            "name": "OwnableUnauthorizedAccount",
            "type": "error"
        },
        {
            "anonymous": false,
            "inputs": [
                {
                    "indexed": true,
                    "internalType": "address",
                    "name": "previousOwner",
                    "type": "address"
                },
                {
                    "indexed": true,
                    "internalType": "address",
                    "name": "newOwner",
                    "type": "address"
                }
            ],
            "name": "OwnershipTransferred",
            "type": "event"
        },
        {
            "anonymous": false,
            "inputs": [],
            "name": "Paused",
            "type": "event"
        },
        {
            "anonymous": false,
            "inputs": [
                {
                    "indexed": false,
                    "internalType": "uint256",
                    "name": "pid",
                    "type": "uint256"
                },
                {
                    "indexed": false,
                    "internalType": "address",
                    "name": "stTokenAddress",
                    "type": "address"
                },
                {
                    "indexed": false,
                    "internalType": "uint256",
                    "name": "poolWeight",
                    "type": "uint256"
                },
                {
                    "indexed": false,
                    "internalType": "uint256",
                    "name": "minDepositAmount",
                    "type": "uint256"
                },
                {
                    "indexed": false,
                    "internalType": "uint256",
                    "name": "unstakeLockedBlocks",
                    "type": "uint256"
                }
            ],
            "name": "PoolAdded",
            "type": "event"
        },
        {
            "anonymous": false,
            "inputs": [
                {
                    "indexed": false,
                    "internalType": "uint256",
                    "name": "pid",
                    "type": "uint256"
                },
                {
                    "indexed": false,
                    "internalType": "address",
                    "name": "stTokenAddress",
                    "type": "address"
                },
                {
                    "indexed": false,
                    "internalType": "uint256",
                    "name": "poolWeight",
                    "type": "uint256"
                },
                {
                    "indexed": false,
                    "internalType": "uint256",
                    "name": "minDepositAmount",
                    "type": "uint256"
                },
                {
                    "indexed": false,
                    "internalType": "uint256",
                    "name": "unstakeLockedBlocks",
                    "type": "uint256"
                }
            ],
            "name": "PoolUpdated",
            "type": "event"
        },
        {
            "anonymous": false,
            "inputs": [
                {
                    "indexed": true,
                    "internalType": "address",
                    "name": "user",
                    "type": "address"
                },
                {
                    "indexed": false,
                    "internalType": "uint256",
                    "name": "pid",
                    "type": "uint256"
                },
                {
                    "indexed": false,
                    "internalType": "uint256",
                    "name": "amount",
                    "type": "uint256"
                }
            ],
            "name": "RewardClaimed",
            "type": "event"
        },
        {
            "anonymous": false,
            "inputs": [
                {
                    "indexed": true,
                    "internalType": "address",
                    "name": "user",
                    "type": "address"
                },
                {
                    "indexed": false,
                    "internalType": "uint256",
                    "name": "pid",
                    "type": "uint256"
                },
                {
                    "indexed": false,
                    "internalType": "uint256",
                    "name": "amount",
                    "type": "uint256"
                }
            ],
            "name": "Staked",
            "type": "event"
        },
        {
            "anonymous": false,
            "inputs": [],
            "name": "Unpaused",
            "type": "event"
        },
        {
            "anonymous": false,
            "inputs": [
                {
                    "indexed": true,
                    "internalType": "address",
                    "name": "user",
                    "type": "address"
                },
                {
                    "indexed": false,
                    "internalType": "uint256",
                    "name": "pid",
                    "type": "uint256"
                },
                {
                    "indexed": false,
                    "internalType": "uint256",
                    "name": "amount",
                    "type": "uint256"
                }
            ],
            "name": "Unstaked",
            "type": "event"
        },
        {
            "anonymous": false,
            "inputs": [
                {
                    "indexed": true,
                    "internalType": "address",
                    "name": "upgrader",
                    "type": "address"
                }
            ],
            "name": "UpgraderAuthorized",
            "type": "event"
        },
        {
            "anonymous": false,
            "inputs": [
                {
                    "indexed": true,
                    "internalType": "address",
                    "name": "upgrader",
                    "type": "address"
                }
            ],
            "name": "UpgraderRevoked",
            "type": "event"
        },
        {
            "inputs": [
                {
                    "internalType": "uint256",
                    "name": "_pid",
                    "type": "uint256"
                },
                {
                    "internalType": "address",
                    "name": "_stTokenAddress",
                    "type": "address"
                },
                {
                    "internalType": "uint256",
                    "name": "_poolWeight",
                    "type": "uint256"
                },
                {
                    "internalType": "uint256",
                    "name": "_minDepositAmount",
                    "type": "uint256"
                },
                {
                    "internalType": "uint256",
                    "name": "_unstakeLockedBlocks",
                    "type": "uint256"
                }
            ],
            "name": "addPool",
            "outputs": [],
            "stateMutability": "nonpayable",
            "type": "function"
        },
        {
            "inputs": [
                {
                    "internalType": "address",
                    "name": "_upgrader",
                    "type": "address"
                }
            ],
            "name": "authorizeUpgrader",
            "outputs": [],
            "stateMutability": "nonpayable",
            "type": "function"
        },
        {
            "inputs": [
                {
                    "internalType": "address",
                    "name": "",
                    "type": "address"
                }
            ],
            "name": "authorizedUpgraders",
            "outputs": [
                {
                    "internalType": "bool",
                    "name": "",
                    "type": "bool"
                }
            ],
            "stateMutability": "view",
            "type": "function"
        },
        {
            "inputs": [
                {
                    "internalType": "uint256",
                    "name": "_pid",
                    "type": "uint256"
                }
            ],
            "name": "claimReward",
            "outputs": [],
            "stateMutability": "nonpayable",
            "type": "function"
        },
        {
            "inputs": [],
            "name": "owner",
            "outputs": [
                {
                    "internalType": "address",
                    "name": "",
                    "type": "address"
                }
            ],
            "stateMutability": "view",
            "type": "function"
        },
        {
            "inputs": [],
            "name": "pause",
            "outputs": [],
            "stateMutability": "nonpayable",
            "type": "function"
        },
        {
            "inputs": [],
            "name": "paused",
            "outputs": [
                {
                    "internalType": "bool",
                    "name": "",
                    "type": "bool"
                }
            ],
            "stateMutability": "view",
            "type": "function"
        },
        {
            "inputs": [
                {
                    "internalType": "uint256",
                    "name": "",
                    "type": "uint256"
                }
            ],
            "name": "pools",
            "outputs": [
                {
                    "internalType": "address",
                    "name": "stTokenAddress",
                    "type": "address"
                },
                {
                    "internalType": "uint256",
                    "name": "poolWeight",
                    "type": "uint256"
                },
                {
                    "internalType": "uint256",
                    "name": "lastRewardBlock",
                    "type": "uint256"
                },
                {
                    "internalType": "uint256",
                    "name": "accB2PerST",
                    "type": "uint256"
                },
                {
                    "internalType": "uint256",
                    "name": "stTokenAmount",
                    "type": "uint256"
                },
                {
                    "internalType": "uint256",
                    "name": "minDepositAmount",
                    "type": "uint256"
                },
                {
                    "internalType": "uint256",
                    "name": "unstakeLockedBlocks",
                    "type": "uint256"
                }
            ],
            "stateMutability": "view",
            "type": "function"
        },
        {
            "inputs": [],
            "name": "renounceOwnership",
            "outputs": [],
            "stateMutability": "nonpayable",
            "type": "function"
        },
        {
            "inputs": [
                {
                    "internalType": "address",
                    "name": "_upgrader",
                    "type": "address"
                }
            ],
            "name": "revokeUpgrader",
            "outputs": [],
            "stateMutability": "nonpayable",
            "type": "function"
        },
        {
            "inputs": [
                {
                    "internalType": "uint256",
                    "name": "_pid",
                    "type": "uint256"
                },
                {
                    "internalType": "uint256",
                    "name": "_amount",
                    "type": "uint256"
                }
            ],
            "name": "stake",
            "outputs": [],
            "stateMutability": "nonpayable",
            "type": "function"
        },
        {
            "inputs": [
                {
                    "internalType": "address",
                    "name": "newOwner",
                    "type": "address"
                }
            ],
            "name": "transferOwnership",
            "outputs": [],
            "stateMutability": "nonpayable",
            "type": "function"
        },
        {
            "inputs": [],
            "name": "unpause",
            "outputs": [],
            "stateMutability": "nonpayable",
            "type": "function"
        },
        {
            "inputs": [
                {
                    "internalType": "uint256",
                    "name": "_pid",
                    "type": "uint256"
                },
                {
                    "internalType": "uint256",
                    "name": "_amount",
                    "type": "uint256"
                }
            ],
            "name": "unstake",
            "outputs": [],
            "stateMutability": "nonpayable",
            "type": "function"
        },
        {
            "inputs": [
                {
                    "internalType": "address",
                    "name": "newContract",
                    "type": "address"
                }
            ],
            "name": "upgradeContract",
            "outputs": [],
            "stateMutability": "nonpayable",
            "type": "function"
        },
        {
            "inputs": [
                {
                    "internalType": "address",
                    "name": "",
                    "type": "address"
                },
                {
                    "internalType": "uint256",
                    "name": "",
                    "type": "uint256"
                }
            ],
            "name": "users",
            "outputs": [
                {
                    "internalType": "uint256",
                    "name": "stAmount",
                    "type": "uint256"
                },
                {
                    "internalType": "uint256",
                    "name": "finishedB2",
                    "type": "uint256"
                },
                {
                    "internalType": "uint256",
                    "name": "pendingB2",
                    "type": "uint256"
                }
            ],
            "stateMutability": "view",
            "type": "function"
        }
    ],
    "bytecode": "60806040526004805460ff19169055348015610019575f80fd5b50338061003f57604051631e4fbdf760e01b81525f600482015260240160405180910390fd5b6100488161004e565b5061009d565b5f80546001600160a01b038381166001600160a01b0319831681178455604051919092169283917f8be0079c531659141344cd1fd0a4f28419497f9722a3daafe3b4186f6b6457e09190a35050565b610b9d806100aa5f395ff3fe608060405234801561000f575f80fd5b50600436106100fb575f3560e01c80638456cb5911610093578063ae169a5011610063578063ae169a50146102a7578063c41fe02d146102ba578063eb2c0223146102cd578063f2fde38b146102e0575f80fd5b80638456cb59146101de5780638da5cb5b146101e65780639e2c8a5b14610200578063ac4afa3814610213575f80fd5b80636a3c1525116100ce5780636a3c15251461018e578063715018a6146101b05780637b0472f0146101b85780637c853780146101cb575f80fd5b80633f4ba83a146100ff5780634ca171dc1461010957806354a02f9e1461011c5780635c975abb14610171575b5f80fd5b6101076102f3565b005b610107610117366004610a1b565b61032f565b61015161012a366004610a3b565b600260208181525f9384526040808520909152918352912080546001820154919092015483565b604080519384526020840192909252908201526060015b60405180910390f35b60045461017e9060ff1681565b6040519015158152602001610168565b61017e61019c366004610a1b565b60036020525f908152604090205460ff1681565b610107610382565b6101076101c6366004610a63565b610395565b6101076101d9366004610a1b565b610522565b610107610572565b5f546040516001600160a01b039091168152602001610168565b61010761020e366004610a63565b6105b1565b610268610221366004610a83565b600160208190525f918252604090912080549181015460028201546003830154600484015460058501546006909501546001600160a01b0390961695939492939192909187565b604080516001600160a01b0390981688526020880196909652948601939093526060850191909152608084015260a083015260c082015260e001610168565b6101076102b5366004610a83565b61070f565b6101076102c8366004610a9a565b6107d8565b6101076102db366004610a1b565b6108ea565b6101076102ee366004610a1b565b61094b565b6102fb610985565b6004805460ff191690556040517fa45f47fdea8a1efdd9029a5691c7f759c32b7c698632b563573e155625d16933905f90a1565b610337610985565b6001600160a01b0381165f81815260036020526040808220805460ff19166001179055517fd4f457f9bb396f9f819dce7506ca19549d73197472ab3a18322071c0203aba099190a250565b61038a610985565b6103935f6109b1565b565b60045460ff16156103c15760405162461bcd60e51b81526004016103b890610adc565b60405180910390fd5b5f8281526001602090815260408083203384526002835281842086855290925290912060058201548310156104385760405162461bcd60e51b815260206004820152601c60248201527f416d6f756e742062656c6f77206d696e696d756d206465706f7369740000000060448201526064016103b8565b81546040516323b872dd60e01b8152336004820152306024820152604481018590526001600160a01b03909116906323b872dd906064016020604051808303815f875af115801561048b573d5f803e3d5ffd5b505050506040513d601f19601f820116820180604052508101906104af9190610b08565b5082815f015f8282546104c29190610b3b565b9250508190555082826004015f8282546104dc9190610b3b565b9091555050604080518581526020810185905233917f1449c6dd7851abc30abf37f57715f492010519147cc2652fbc38202c18a6ee90910160405180910390a250505050565b61052a610985565b6001600160a01b0381165f81815260036020526040808220805460ff19169055517f8a761d5dee522b3058dac16bb8cd4c1eb449b03d8e6189eb0e40d46decc949a49190a250565b61057a610985565b6004805460ff191660011790556040517f9e87fac88ff661f02d44f95383c817fece4bce600a3dab7a54406878b965e752905f90a1565b60045460ff16156105d45760405162461bcd60e51b81526004016103b890610adc565b5f8281526001602090815260408083203384526002835281842086855290925290912080548311156106485760405162461bcd60e51b815260206004820152601c60248201527f416d6f756e742065786365656473207374616b656420616d6f756e740000000060448201526064016103b8565b5f8260060154436106599190610b3b565b604080518082019091528581526020808201838152600386018054600181810183555f9283529382209451600290910290940193845590519290910191909155835491925085918491906106ae908490610b54565b9250508190555083836004015f8282546106c89190610b54565b9091555050604080518681526020810186905233917f7fc4727e062e336010f2c282598ef5f14facb3de68cf8195c2f23e1454b2b74e910160405180910390a25050505050565b60045460ff16156107325760405162461bcd60e51b81526004016103b890610adc565b335f90815260026020818152604080842085855290915290912090810154806107925760405162461bcd60e51b81526020600482015260126024820152714e6f2072657761726420746f20636c61696d60701b60448201526064016103b8565b5f6002830155604080518481526020810183905233917ff01da32686223933d8a18a391060918c7f11a3648639edd87ae013e2e2731743910160405180910390a2505050565b6107e0610985565b5f858152600160208190526040822080546001600160a01b0319166001600160a01b0388161781559081018590556005810184905560068101839055600281015490910361088a57436002820155604080518781526001600160a01b038716602082015290810185905260608101849052608081018390527fdcad60f82308d160bd8a3814cf84788a2c98294718485b86d238d14cbf166dab9060a00160405180910390a16108e2565b604080518781526001600160a01b038716602082015290810185905260608101849052608081018390527fa7b3042fd85b0c1b94795e095f525fa0b3d4cd5feb8c9b69c08f370b5f49ed359060a00160405180910390a15b505050505050565b335f9081526003602052604090205460ff166109485760405162461bcd60e51b815260206004820152601960248201527f4e6f7420617574686f72697a656420746f20757067726164650000000000000060448201526064016103b8565b50565b610953610985565b6001600160a01b03811661097c57604051631e4fbdf760e01b81525f60048201526024016103b8565b610948816109b1565b5f546001600160a01b031633146103935760405163118cdaa760e01b81523360048201526024016103b8565b5f80546001600160a01b038381166001600160a01b0319831681178455604051919092169283917f8be0079c531659141344cd1fd0a4f28419497f9722a3daafe3b4186f6b6457e09190a35050565b80356001600160a01b0381168114610a16575f80fd5b919050565b5f60208284031215610a2b575f80fd5b610a3482610a00565b9392505050565b5f8060408385031215610a4c575f80fd5b610a5583610a00565b946020939093013593505050565b5f8060408385031215610a74575f80fd5b50508035926020909101359150565b5f60208284031215610a93575f80fd5b5035919050565b5f805f805f60a08688031215610aae575f80fd5b85359450610abe60208701610a00565b94979496505050506040830135926060810135926080909101359150565b60208082526012908201527110dbdb9d1c9858dd081a5cc81c185d5cd95960721b604082015260600190565b5f60208284031215610b18575f80fd5b81518015158114610a34575f80fd5b634e487b7160e01b5f52601160045260245ffd5b80820180821115610b4e57610b4e610b27565b92915050565b81810381811115610b4e57610b4e610b2756fea2646970667358221220854db92b6946639b77f02ca4d4a33edd1243f46c4de031d72948c29ac1d64d0464736f6c63430008180033",
    "sourcePath": "d:/web3/B2Stake/script/B2Stake.sol",
    "compiler": {
        "name": "solc",
        "version": "0.8.24+commit.e11b9ed9"
    },
    "functionHashes": {
        "addPool(uint256,address,uint256,uint256,uint256)": "c41fe02d",
        "authorizeUpgrader(address)": "4ca171dc",
        "authorizedUpgraders(address)": "6a3c1525",
        "claimReward(uint256)": "ae169a50",
        "owner()": "8da5cb5b",
        "pause()": "8456cb59",
        "paused()": "5c975abb",
        "pools(uint256)": "ac4afa38",
        "renounceOwnership()": "715018a6",
        "revokeUpgrader(address)": "7c853780",
        "stake(uint256,uint256)": "7b0472f0",
        "transferOwnership(address)": "f2fde38b",
        "unpause()": "3f4ba83a",
        "unstake(uint256,uint256)": "9e2c8a5b",
        "upgradeContract(address)": "eb2c0223",
        "users(address,uint256)": "54a02f9e"
    },
    "gasEstimates": {
        "creation": {
            "codeDepositCost": "594600",
            "executionCost": "50703",
            "totalCost": "645303"
        },
        "external": {
            "addPool(uint256,address,uint256,uint256,uint256)": "119711",
            "authorizeUpgrader(address)": "27961",
            "authorizedUpgraders(address)": "2551",
            "claimReward(uint256)": "11369",
            "owner()": "2344",
            "pause()": "27320",
            "paused()": "2399",
            "pools(uint256)": "15385",
            "renounceOwnership()": "infinite",
            "revokeUpgrader(address)": "27998",
            "stake(uint256,uint256)": "infinite",
            "transferOwnership(address)": "28417",
            "unpause()": "27315",
            "unstake(uint256,uint256)": "infinite",
            "upgradeContract(address)": "2663",
            "users(address,uint256)": "6932"
        },
        "internal": {
            "_calculateReward(uint256,address)": "infinite"
        }
    }
}