{
    "contractName": "B2Stake",
    "abi": [
        {
            "inputs": [],
            "name": "AccessControlBadConfirmation",
            "type": "error"
        },
        {
            "inputs": [
                {
                    "internalType": "address",
                    "name": "account",
                    "type": "address"
                },
                {
                    "internalType": "bytes32",
                    "name": "neededRole",
                    "type": "bytes32"
                }
            ],
            "name": "AccessControlUnauthorizedAccount",
            "type": "error"
        },
        {
            "inputs": [
                {
                    "internalType": "address",
                    "name": "target",
                    "type": "address"
                }
            ],
            "name": "AddressEmptyCode",
            "type": "error"
        },
        {
            "inputs": [
                {
                    "internalType": "address",
                    "name": "implementation",
                    "type": "address"
                }
            ],
            "name": "ERC1967InvalidImplementation",
            "type": "error"
        },
        {
            "inputs": [],
            "name": "ERC1967NonPayable",
            "type": "error"
        },
        {
            "inputs": [],
            "name": "EnforcedPause",
            "type": "error"
        },
        {
            "inputs": [],
            "name": "ExpectedPause",
            "type": "error"
        },
        {
            "inputs": [],
            "name": "FailedInnerCall",
            "type": "error"
        },
        {
            "inputs": [],
            "name": "InvalidInitialization",
            "type": "error"
        },
        {
            "inputs": [],
            "name": "NotInitializing",
            "type": "error"
        },
        {
            "inputs": [],
            "name": "UUPSUnauthorizedCallContext",
            "type": "error"
        },
        {
            "inputs": [
                {
                    "internalType": "bytes32",
                    "name": "slot",
                    "type": "bytes32"
                }
            ],
            "name": "UUPSUnsupportedProxiableUUID",
            "type": "error"
        },
        {
            "anonymous": false,
            "inputs": [
                {
                    "indexed": false,
                    "internalType": "uint64",
                    "name": "version",
                    "type": "uint64"
                }
            ],
            "name": "Initialized",
            "type": "event"
        },
        {
            "anonymous": false,
            "inputs": [
                {
                    "indexed": false,
                    "internalType": "address",
                    "name": "account",
                    "type": "address"
                }
            ],
            "name": "Paused",
            "type": "event"
        },
        {
            "anonymous": false,
            "inputs": [],
            "name": "Paused",
            "type": "event"
        },
        {
            "anonymous": false,
            "inputs": [
                {
                    "indexed": false,
                    "internalType": "uint256",
                    "name": "pid",
                    "type": "uint256"
                },
                {
                    "indexed": false,
                    "internalType": "address",
                    "name": "stTokenAddress",
                    "type": "address"
                },
                {
                    "indexed": false,
                    "internalType": "uint256",
                    "name": "poolWeight",
                    "type": "uint256"
                },
                {
                    "indexed": false,
                    "internalType": "uint256",
                    "name": "minDepositAmount",
                    "type": "uint256"
                },
                {
                    "indexed": false,
                    "internalType": "uint256",
                    "name": "unstakeLockedBlocks",
                    "type": "uint256"
                },
                {
                    "indexed": false,
                    "internalType": "uint256",
                    "name": "rewardPerBlock",
                    "type": "uint256"
                }
            ],
            "name": "PoolAdded",
            "type": "event"
        },
        {
            "anonymous": false,
            "inputs": [
                {
                    "indexed": false,
                    "internalType": "uint256",
                    "name": "pid",
                    "type": "uint256"
                },
                {
                    "indexed": false,
                    "internalType": "address",
                    "name": "stTokenAddress",
                    "type": "address"
                },
                {
                    "indexed": false,
                    "internalType": "uint256",
                    "name": "poolWeight",
                    "type": "uint256"
                },
                {
                    "indexed": false,
                    "internalType": "uint256",
                    "name": "minDepositAmount",
                    "type": "uint256"
                },
                {
                    "indexed": false,
                    "internalType": "uint256",
                    "name": "unstakeLockedBlocks",
                    "type": "uint256"
                },
                {
                    "indexed": false,
                    "internalType": "uint256",
                    "name": "rewardPerBlock",
                    "type": "uint256"
                }
            ],
            "name": "PoolUpdated",
            "type": "event"
        },
        {
            "anonymous": false,
            "inputs": [
                {
                    "indexed": true,
                    "internalType": "address",
                    "name": "user",
                    "type": "address"
                },
                {
                    "indexed": false,
                    "internalType": "uint256",
                    "name": "pid",
                    "type": "uint256"
                },
                {
                    "indexed": false,
                    "internalType": "uint256",
                    "name": "amount",
                    "type": "uint256"
                }
            ],
            "name": "RewardClaimed",
            "type": "event"
        },
        {
            "anonymous": false,
            "inputs": [
                {
                    "indexed": true,
                    "internalType": "bytes32",
                    "name": "role",
                    "type": "bytes32"
                },
                {
                    "indexed": true,
                    "internalType": "bytes32",
                    "name": "previousAdminRole",
                    "type": "bytes32"
                },
                {
                    "indexed": true,
                    "internalType": "bytes32",
                    "name": "newAdminRole",
                    "type": "bytes32"
                }
            ],
            "name": "RoleAdminChanged",
            "type": "event"
        },
        {
            "anonymous": false,
            "inputs": [
                {
                    "indexed": true,
                    "internalType": "bytes32",
                    "name": "role",
                    "type": "bytes32"
                },
                {
                    "indexed": true,
                    "internalType": "address",
                    "name": "account",
                    "type": "address"
                },
                {
                    "indexed": true,
                    "internalType": "address",
                    "name": "sender",
                    "type": "address"
                }
            ],
            "name": "RoleGranted",
            "type": "event"
        },
        {
            "anonymous": false,
            "inputs": [
                {
                    "indexed": true,
                    "internalType": "bytes32",
                    "name": "role",
                    "type": "bytes32"
                },
                {
                    "indexed": true,
                    "internalType": "address",
                    "name": "account",
                    "type": "address"
                },
                {
                    "indexed": true,
                    "internalType": "address",
                    "name": "sender",
                    "type": "address"
                }
            ],
            "name": "RoleRevoked",
            "type": "event"
        },
        {
            "anonymous": false,
            "inputs": [
                {
                    "indexed": true,
                    "internalType": "contract IERC20",
                    "name": "B2",
                    "type": "address"
                }
            ],
            "name": "SetB2",
            "type": "event"
        },
        {
            "anonymous": false,
            "inputs": [
                {
                    "indexed": false,
                    "internalType": "uint256",
                    "name": "b2PerBlock",
                    "type": "uint256"
                }
            ],
            "name": "SetB2PerBlock",
            "type": "event"
        },
        {
            "anonymous": false,
            "inputs": [
                {
                    "indexed": false,
                    "internalType": "uint256",
                    "name": "endBlock",
                    "type": "uint256"
                }
            ],
            "name": "SetEndBlock",
            "type": "event"
        },
        {
            "anonymous": false,
            "inputs": [
                {
                    "indexed": false,
                    "internalType": "uint256",
                    "name": "startBlock",
                    "type": "uint256"
                }
            ],
            "name": "SetStartBlock",
            "type": "event"
        },
        {
            "anonymous": false,
            "inputs": [
                {
                    "indexed": true,
                    "internalType": "address",
                    "name": "user",
                    "type": "address"
                },
                {
                    "indexed": false,
                    "internalType": "uint256",
                    "name": "pid",
                    "type": "uint256"
                },
                {
                    "indexed": false,
                    "internalType": "uint256",
                    "name": "amount",
                    "type": "uint256"
                }
            ],
            "name": "Staked",
            "type": "event"
        },
        {
            "anonymous": false,
            "inputs": [
                {
                    "indexed": false,
                    "internalType": "address",
                    "name": "account",
                    "type": "address"
                }
            ],
            "name": "Unpaused",
            "type": "event"
        },
        {
            "anonymous": false,
            "inputs": [],
            "name": "Unpaused",
            "type": "event"
        },
        {
            "anonymous": false,
            "inputs": [
                {
                    "indexed": true,
                    "internalType": "address",
                    "name": "user",
                    "type": "address"
                },
                {
                    "indexed": false,
                    "internalType": "uint256",
                    "name": "pid",
                    "type": "uint256"
                },
                {
                    "indexed": false,
                    "internalType": "uint256",
                    "name": "amount",
                    "type": "uint256"
                }
            ],
            "name": "Unstaked",
            "type": "event"
        },
        {
            "anonymous": false,
            "inputs": [
                {
                    "indexed": true,
                    "internalType": "address",
                    "name": "implementation",
                    "type": "address"
                }
            ],
            "name": "Upgraded",
            "type": "event"
        },
        {
            "anonymous": false,
            "inputs": [
                {
                    "indexed": true,
                    "internalType": "address",
                    "name": "upgrader",
                    "type": "address"
                }
            ],
            "name": "UpgraderAuthorized",
            "type": "event"
        },
        {
            "anonymous": false,
            "inputs": [
                {
                    "indexed": true,
                    "internalType": "address",
                    "name": "upgrader",
                    "type": "address"
                }
            ],
            "name": "UpgraderRevoked",
            "type": "event"
        },
        {
            "inputs": [],
            "name": "ADMIN_ROLE",
            "outputs": [
                {
                    "internalType": "bytes32",
                    "name": "",
                    "type": "bytes32"
                }
            ],
            "stateMutability": "view",
            "type": "function"
        },
        {
            "inputs": [],
            "name": "B2",
            "outputs": [
                {
                    "internalType": "contract IERC20",
                    "name": "",
                    "type": "address"
                }
            ],
            "stateMutability": "view",
            "type": "function"
        },
        {
            "inputs": [],
            "name": "BTC_PID",
            "outputs": [
                {
                    "internalType": "uint256",
                    "name": "",
                    "type": "uint256"
                }
            ],
            "stateMutability": "view",
            "type": "function"
        },
        {
            "inputs": [],
            "name": "DEFAULT_ADMIN_ROLE",
            "outputs": [
                {
                    "internalType": "bytes32",
                    "name": "",
                    "type": "bytes32"
                }
            ],
            "stateMutability": "view",
            "type": "function"
        },
        {
            "inputs": [],
            "name": "UPGRADE_INTERFACE_VERSION",
            "outputs": [
                {
                    "internalType": "string",
                    "name": "",
                    "type": "string"
                }
            ],
            "stateMutability": "view",
            "type": "function"
        },
        {
            "inputs": [],
            "name": "UPGRADE_ROLE",
            "outputs": [
                {
                    "internalType": "bytes32",
                    "name": "",
                    "type": "bytes32"
                }
            ],
            "stateMutability": "view",
            "type": "function"
        },
        {
            "inputs": [
                {
                    "internalType": "uint256",
                    "name": "_pid",
                    "type": "uint256"
                },
                {
                    "internalType": "address",
                    "name": "_stTokenAddress",
                    "type": "address"
                },
                {
                    "internalType": "uint256",
                    "name": "_poolWeight",
                    "type": "uint256"
                },
                {
                    "internalType": "uint256",
                    "name": "_minDepositAmount",
                    "type": "uint256"
                },
                {
                    "internalType": "uint256",
                    "name": "_unstakeLockedBlocks",
                    "type": "uint256"
                },
                {
                    "internalType": "uint256",
                    "name": "_rewardPerBlock",
                    "type": "uint256"
                }
            ],
            "name": "addPool",
            "outputs": [],
            "stateMutability": "nonpayable",
            "type": "function"
        },
        {
            "inputs": [
                {
                    "internalType": "address",
                    "name": "_upgrader",
                    "type": "address"
                }
            ],
            "name": "authorizeUpgrader",
            "outputs": [],
            "stateMutability": "nonpayable",
            "type": "function"
        },
        {
            "inputs": [
                {
                    "internalType": "address",
                    "name": "",
                    "type": "address"
                }
            ],
            "name": "authorizedUpgraders",
            "outputs": [
                {
                    "internalType": "bool",
                    "name": "",
                    "type": "bool"
                }
            ],
            "stateMutability": "view",
            "type": "function"
        },
        {
            "inputs": [],
            "name": "b2PerBlock",
            "outputs": [
                {
                    "internalType": "uint256",
                    "name": "",
                    "type": "uint256"
                }
            ],
            "stateMutability": "view",
            "type": "function"
        },
        {
            "inputs": [
                {
                    "internalType": "uint256",
                    "name": "_pid",
                    "type": "uint256"
                },
                {
                    "internalType": "address",
                    "name": "_user",
                    "type": "address"
                }
            ],
            "name": "calculateReward",
            "outputs": [
                {
                    "internalType": "uint256",
                    "name": "",
                    "type": "uint256"
                }
            ],
            "stateMutability": "view",
            "type": "function"
        },
        {
            "inputs": [],
            "name": "claimPaused",
            "outputs": [
                {
                    "internalType": "bool",
                    "name": "",
                    "type": "bool"
                }
            ],
            "stateMutability": "view",
            "type": "function"
        },
        {
            "inputs": [
                {
                    "internalType": "uint256",
                    "name": "_pid",
                    "type": "uint256"
                }
            ],
            "name": "claimReward",
            "outputs": [],
            "stateMutability": "nonpayable",
            "type": "function"
        },
        {
            "inputs": [],
            "name": "endBlock",
            "outputs": [
                {
                    "internalType": "uint256",
                    "name": "",
                    "type": "uint256"
                }
            ],
            "stateMutability": "view",
            "type": "function"
        },
        {
            "inputs": [
                {
                    "internalType": "bytes32",
                    "name": "role",
                    "type": "bytes32"
                }
            ],
            "name": "getRoleAdmin",
            "outputs": [
                {
                    "internalType": "bytes32",
                    "name": "",
                    "type": "bytes32"
                }
            ],
            "stateMutability": "view",
            "type": "function"
        },
        {
            "inputs": [
                {
                    "internalType": "bytes32",
                    "name": "role",
                    "type": "bytes32"
                },
                {
                    "internalType": "address",
                    "name": "account",
                    "type": "address"
                }
            ],
            "name": "grantRole",
            "outputs": [],
            "stateMutability": "nonpayable",
            "type": "function"
        },
        {
            "inputs": [
                {
                    "internalType": "bytes32",
                    "name": "role",
                    "type": "bytes32"
                },
                {
                    "internalType": "address",
                    "name": "account",
                    "type": "address"
                }
            ],
            "name": "hasRole",
            "outputs": [
                {
                    "internalType": "bool",
                    "name": "",
                    "type": "bool"
                }
            ],
            "stateMutability": "view",
            "type": "function"
        },
        {
            "inputs": [
                {
                    "internalType": "contract IERC20",
                    "name": "_B2",
                    "type": "address"
                },
                {
                    "internalType": "uint256",
                    "name": "_startBlock",
                    "type": "uint256"
                },
                {
                    "internalType": "uint256",
                    "name": "_endBlock",
                    "type": "uint256"
                },
                {
                    "internalType": "uint256",
                    "name": "_b2PerBlock",
                    "type": "uint256"
                }
            ],
            "name": "initialize",
            "outputs": [],
            "stateMutability": "nonpayable",
            "type": "function"
        },
        {
            "inputs": [],
            "name": "pause",
            "outputs": [],
            "stateMutability": "nonpayable",
            "type": "function"
        },
        {
            "inputs": [],
            "name": "paused",
            "outputs": [
                {
                    "internalType": "bool",
                    "name": "",
                    "type": "bool"
                }
            ],
            "stateMutability": "view",
            "type": "function"
        },
        {
            "inputs": [
                {
                    "internalType": "uint256",
                    "name": "",
                    "type": "uint256"
                }
            ],
            "name": "pools",
            "outputs": [
                {
                    "internalType": "address",
                    "name": "stTokenAddress",
                    "type": "address"
                },
                {
                    "internalType": "uint256",
                    "name": "poolWeight",
                    "type": "uint256"
                },
                {
                    "internalType": "uint256",
                    "name": "lastRewardBlock",
                    "type": "uint256"
                },
                {
                    "internalType": "uint256",
                    "name": "accB2PerST",
                    "type": "uint256"
                },
                {
                    "internalType": "uint256",
                    "name": "stTokenAmount",
                    "type": "uint256"
                },
                {
                    "internalType": "uint256",
                    "name": "minDepositAmount",
                    "type": "uint256"
                },
                {
                    "internalType": "uint256",
                    "name": "unstakeLockedBlocks",
                    "type": "uint256"
                },
                {
                    "internalType": "uint256",
                    "name": "rewardPerBlock",
                    "type": "uint256"
                }
            ],
            "stateMutability": "view",
            "type": "function"
        },
        {
            "inputs": [],
            "name": "proxiableUUID",
            "outputs": [
                {
                    "internalType": "bytes32",
                    "name": "",
                    "type": "bytes32"
                }
            ],
            "stateMutability": "view",
            "type": "function"
        },
        {
            "inputs": [
                {
                    "internalType": "bytes32",
                    "name": "role",
                    "type": "bytes32"
                },
                {
                    "internalType": "address",
                    "name": "callerConfirmation",
                    "type": "address"
                }
            ],
            "name": "renounceRole",
            "outputs": [],
            "stateMutability": "nonpayable",
            "type": "function"
        },
        {
            "inputs": [
                {
                    "internalType": "bytes32",
                    "name": "role",
                    "type": "bytes32"
                },
                {
                    "internalType": "address",
                    "name": "account",
                    "type": "address"
                }
            ],
            "name": "revokeRole",
            "outputs": [],
            "stateMutability": "nonpayable",
            "type": "function"
        },
        {
            "inputs": [
                {
                    "internalType": "contract IERC20",
                    "name": "_B2",
                    "type": "address"
                }
            ],
            "name": "setB2",
            "outputs": [],
            "stateMutability": "nonpayable",
            "type": "function"
        },
        {
            "inputs": [
                {
                    "internalType": "uint256",
                    "name": "_b2PerBlock",
                    "type": "uint256"
                }
            ],
            "name": "setB2PerBlock",
            "outputs": [],
            "stateMutability": "nonpayable",
            "type": "function"
        },
        {
            "inputs": [
                {
                    "internalType": "uint256",
                    "name": "_endBlock",
                    "type": "uint256"
                }
            ],
            "name": "setEndBlock",
            "outputs": [],
            "stateMutability": "nonpayable",
            "type": "function"
        },
        {
            "inputs": [
                {
                    "internalType": "uint256",
                    "name": "_startBlock",
                    "type": "uint256"
                }
            ],
            "name": "setStartBlock",
            "outputs": [],
            "stateMutability": "nonpayable",
            "type": "function"
        },
        {
            "inputs": [
                {
                    "internalType": "uint256",
                    "name": "_pid",
                    "type": "uint256"
                },
                {
                    "internalType": "uint256",
                    "name": "_amount",
                    "type": "uint256"
                }
            ],
            "name": "stake",
            "outputs": [],
            "stateMutability": "nonpayable",
            "type": "function"
        },
        {
            "inputs": [],
            "name": "startBlock",
            "outputs": [
                {
                    "internalType": "uint256",
                    "name": "",
                    "type": "uint256"
                }
            ],
            "stateMutability": "view",
            "type": "function"
        },
        {
            "inputs": [
                {
                    "internalType": "bytes4",
                    "name": "interfaceId",
                    "type": "bytes4"
                }
            ],
            "name": "supportsInterface",
            "outputs": [
                {
                    "internalType": "bool",
                    "name": "",
                    "type": "bool"
                }
            ],
            "stateMutability": "view",
            "type": "function"
        },
        {
            "inputs": [],
            "name": "unpause",
            "outputs": [],
            "stateMutability": "nonpayable",
            "type": "function"
        },
        {
            "inputs": [
                {
                    "internalType": "uint256",
                    "name": "_pid",
                    "type": "uint256"
                },
                {
                    "internalType": "uint256",
                    "name": "_amount",
                    "type": "uint256"
                }
            ],
            "name": "unstake",
            "outputs": [],
            "stateMutability": "nonpayable",
            "type": "function"
        },
        {
            "inputs": [
                {
                    "internalType": "address",
                    "name": "newImplementation",
                    "type": "address"
                },
                {
                    "internalType": "bytes",
                    "name": "data",
                    "type": "bytes"
                }
            ],
            "name": "upgradeToAndCall",
            "outputs": [],
            "stateMutability": "payable",
            "type": "function"
        },
        {
            "inputs": [
                {
                    "internalType": "address",
                    "name": "",
                    "type": "address"
                },
                {
                    "internalType": "uint256",
                    "name": "",
                    "type": "uint256"
                }
            ],
            "name": "users",
            "outputs": [
                {
                    "internalType": "uint256",
                    "name": "stAmount",
                    "type": "uint256"
                },
                {
                    "internalType": "uint256",
                    "name": "finishedB2",
                    "type": "uint256"
                },
                {
                    "internalType": "uint256",
                    "name": "pendingB2",
                    "type": "uint256"
                }
            ],
            "stateMutability": "view",
            "type": "function"
        }
    ],
    "bytecode": "60a060405230608052348015610013575f80fd5b50608051611d4261003a5f395f81816114220152818161144b01526115ac0152611d425ff3fe6080604052600436106101fc575f3560e01c80637b0472f011610113578063ae169a501161009d578063dd57a76e1161006d578063dd57a76e1461068c578063ee19d698146104e8578063f0c1fd44146106c8578063f35e4a6e146106e7578063f9646aae14610706575f80fd5b8063ae169a50146105fc578063b908afa81461061b578063c713aa941461064e578063d547741f1461066d575f80fd5b8063a18f07a0116100e3578063a18f07a0146104c9578063a217fddf146104e8578063ab5e124a146104fb578063ac4afa3814610514578063ad3cb1cc146105bf575f80fd5b80637b0472f0146104585780638456cb591461047757806391d148541461048b5780639e2c8a5b146104aa575f80fd5b806348cd4cb11161019457806352d1902d1161016457806352d1902d1461036457806354a02f9e146103785780635c975abb146103d45780636a3c15251461040a57806375b238fc14610438575f80fd5b806348cd4cb1146102fe5780634ca171dc146103135780634ec81af1146103325780634f1ef28614610351575f80fd5b806328d18b13116101cf57806328d18b13146102975780632f2ff15d146102ac57806336568abe146102cb5780633f4ba83a146102ea575f80fd5b806301ffc9a714610200578063083c6323146102345780630a50f40314610257578063248a9ca314610278575b5f80fd5b34801561020b575f80fd5b5061021f61021a366004611912565b610725565b60405190151581526020015b60405180910390f35b34801561023f575f80fd5b5061024960045481565b60405190815260200161022b565b348015610262575f80fd5b50610276610271366004611939565b61075b565b005b348015610283575f80fd5b50610249610292366004611939565b6107f7565b3480156102a2575f80fd5b5061024960055481565b3480156102b7575f80fd5b506102766102c6366004611964565b610817565b3480156102d6575f80fd5b506102766102e5366004611964565b610839565b3480156102f5575f80fd5b50610276610871565b348015610309575f80fd5b5061024960035481565b34801561031e575f80fd5b5061027661032d366004611992565b6108bd565b34801561033d575f80fd5b5061027661034c3660046119ad565b610920565b61027661035f3660046119f9565b610aee565b34801561036f575f80fd5b50610249610b0d565b348015610383575f80fd5b506103b9610392366004611ab7565b600160208181525f9384526040808520909152918352912080549181015460029091015483565b6040805193845260208401929092529082015260600161022b565b3480156103df575f80fd5b507fcd5ed15c6e187e77e9aee88184c21f4f2182ab5827cb3b7e07fbedcd63f033005460ff1661021f565b348015610415575f80fd5b5061021f610424366004611992565b60026020525f908152604090205460ff1681565b348015610443575f80fd5b506102495f80516020611cad83398151915281565b348015610463575f80fd5b50610276610472366004611ae1565b610b28565b348015610482575f80fd5b50610276610c98565b348015610496575f80fd5b5061021f6104a5366004611964565b610ce7565b3480156104b5575f80fd5b506102766104c4366004611ae1565b610d1d565b3480156104d4575f80fd5b506102496104e3366004611964565b610e67565b3480156104f3575f80fd5b506102495f81565b348015610506575f80fd5b5060065461021f9060ff1681565b34801561051f575f80fd5b5061057a61052e366004611939565b5f60208190529081526040902080546001820154600283015460038401546004850154600586015460068701546007909701546001600160a01b03909616969495939492939192909188565b604080516001600160a01b0390991689526020890197909752958701949094526060860192909252608085015260a084015260c083015260e08201526101000161022b565b3480156105ca575f80fd5b506105ef604051806040016040528060058152602001640352e302e360dc1b81525081565b60405161022b9190611b23565b348015610607575f80fd5b50610276610616366004611939565b610f18565b348015610626575f80fd5b506102497fcab03bc4dbcc648cd59d6bbe9f848d1e9092f914016aa290ee92e18700d1e6f981565b348015610659575f80fd5b50610276610668366004611939565b611048565b348015610678575f80fd5b50610276610687366004611964565b6110b6565b348015610697575f80fd5b506006546106b09061010090046001600160a01b031681565b6040516001600160a01b03909116815260200161022b565b3480156106d3575f80fd5b506102766106e2366004611992565b6110d2565b3480156106f2575f80fd5b50610276610701366004611939565b611140565b348015610711575f80fd5b50610276610720366004611b55565b6111ae565b5f6001600160e01b03198216637965db0b60e01b148061075557506301ffc9a760e01b6001600160e01b03198316145b92915050565b5f80516020611cad833981519152610772816112e6565b5f82116107ba5760405162461bcd60e51b815260206004820152601160248201527034b73b30b634b2103830b930b6b2ba32b960791b60448201526064015b60405180910390fd5b60058290556040518281527f3dff801ad9b83a62654f4fa4a16b58beffeb28b7801f6cde6b2b155b4b0ca833906020015b60405180910390a15050565b5f9081525f80516020611ced833981519152602052604090206001015490565b610820826107f7565b610829816112e6565b61083383836112f3565b50505050565b6001600160a01b03811633146108625760405163334bd91960e11b815260040160405180910390fd5b61086c8282611394565b505050565b5f80516020611cad833981519152610888816112e6565b6006805460ff191690556040517fa45f47fdea8a1efdd9029a5691c7f759c32b7c698632b563573e155625d16933905f90a150565b5f80516020611cad8339815191526108d4816112e6565b6001600160a01b0382165f81815260026020526040808220805460ff19166001179055517fd4f457f9bb396f9f819dce7506ca19549d73197472ab3a18322071c0203aba099190a25050565b7ff0c57e16840df040f15088dc2f81fe391c3923bec73e23a9662efc9c229c6a008054600160401b810460ff16159067ffffffffffffffff165f811580156109655750825b90505f8267ffffffffffffffff1660011480156109815750303b155b90508115801561098f575080155b156109ad5760405163f92ee8a960e01b815260040160405180910390fd5b845467ffffffffffffffff1916600117855583156109d757845460ff60401b1916600160401b1785555b8688111580156109e657505f86115b610a275760405162461bcd60e51b8152602060048201526012602482015271696e76616c696420706172616d657465727360701b60448201526064016107b1565b610a2f61140d565b610a3761140d565b610a415f336112f3565b50610a6c7fcab03bc4dbcc648cd59d6bbe9f848d1e9092f914016aa290ee92e18700d1e6f9336112f3565b50610a845f80516020611cad833981519152336112f3565b50610a8e896110d2565b6003889055600487905560058690558315610ae357845460ff60401b19168555604051600181527fc7f505b2f371ae2175ee4913f4499e1f2633a7b5936321eed1cdaeb6115181d29060200160405180910390a15b505050505050505050565b610af6611417565b610aff826114bb565b610b0982826114e5565b5050565b5f610b166115a1565b505f80516020611ccd83398151915290565b610b306115ea565b5f82815260208181526040808320338452600183528184208685529092529091206005820154831015610ba55760405162461bcd60e51b815260206004820152601c60248201527f416d6f756e742062656c6f77206d696e696d756d206465706f7369740000000060448201526064016107b1565b610bae8461162d565b81546040516323b872dd60e01b8152336004820152306024820152604481018590526001600160a01b03909116906323b872dd906064016020604051808303815f875af1158015610c01573d5f803e3d5ffd5b505050506040513d601f19601f82011682018060405250810190610c259190611ba1565b5082815f015f828254610c389190611bd4565b9250508190555082826004015f828254610c529190611bd4565b9091555050604080518581526020810185905233917f1449c6dd7851abc30abf37f57715f492010519147cc2652fbc38202c18a6ee90910160405180910390a250505050565b5f80516020611cad833981519152610caf816112e6565b6006805460ff191660011790556040517f9e87fac88ff661f02d44f95383c817fece4bce600a3dab7a54406878b965e752905f90a150565b5f9182525f80516020611ced833981519152602090815260408084206001600160a01b0393909316845291905290205460ff1690565b610d256115ea565b5f82815260208181526040808320338452600183528184208685529092529091208054831115610d975760405162461bcd60e51b815260206004820152601c60248201527f416d6f756e742065786365656473207374616b656420616d6f756e740000000060448201526064016107b1565b610da08461162d565b5f826006015443610db19190611bd4565b604080518082019091528581526020808201838152600386018054600181810183555f928352938220945160029091029094019384559051929091019190915583549192508591849190610e06908490611be7565b9250508190555083836004015f828254610e209190611be7565b9091555050604080518681526020810186905233917f7fc4727e062e336010f2c282598ef5f14facb3de68cf8195c2f23e1454b2b74e910160405180910390a25050505050565b5f828152602081815260408083206001600160a01b0385168452600183528184208685529092528220600282015443908111610ea8575f9350505050610755565b5f836002015482610eb99190611be7565b90505f84600401548560010154866007015484610ed69190611bfa565b610ee09190611bfa565b610eea9190611c11565b90505f856004015482865f0154610f019190611bfa565b610f0b9190611c11565b9998505050505050505050565b610f206115ea565b335f818152600160209081526040808320858452909152812091610f45908490610e67565b90505f8111610f8b5760405162461bcd60e51b81526020600482015260126024820152714e6f2072657761726420746f20636c61696d60701b60448201526064016107b1565b5f600283015560065460405163a9059cbb60e01b8152336004820152602481018390526101009091046001600160a01b03169063a9059cbb906044016020604051808303815f875af1158015610fe3573d5f803e3d5ffd5b505050506040513d601f19601f820116820180604052508101906110079190611ba1565b50604080518481526020810183905233917ff01da32686223933d8a18a391060918c7f11a3648639edd87ae013e2e2731743910160405180910390a2505050565b5f80516020611cad83398151915261105f816112e6565b8160035411156110815760405162461bcd60e51b81526004016107b190611c30565b60048290556040518281527f1132c5baccb51da3d049fabc819697dc845fa224ad59d9b555507d6446b40850906020016107eb565b6110bf826107f7565b6110c8816112e6565b6108338383611394565b5f80516020611cad8339815191526110e9816112e6565b60068054610100600160a81b0319166101006001600160a01b0385811682029290921792839055604051920416907f43a08088ea699b57145d84833cb89580dd3a00159e7d17452b08de6532da1ac3905f90a25050565b5f80516020611cad833981519152611157816112e6565b6004548211156111795760405162461bcd60e51b81526004016107b190611c30565b60038290556040518281527f63b90b79f11a0f132bcb2c4a4ddd44abda45c1308a83b2919318df7f5f8b7be4906020016107eb565b5f86815260208190526040812080546001600160a01b0319166001600160a01b03881617815560018101869055600581018590556006810184905560078101839055600281015490910361127e575f600354431161120e57600354611210565b435b60028301819055604080518a81526001600160a01b038a166020820152908101889052606081018790526080810186905260a081018590529091507f3ff6ba61e9c77719adb4a90993171e493ca68a3469805a3cf4e901b3c317bf329060c00160405180910390a1506112dd565b604080518881526001600160a01b0388166020820152908101869052606081018590526080810184905260a081018390527f66be840b97a125c8241daa6e7dcb3b9c653150abd802a17c46d3988f509034439060c00160405180910390a15b50505050505050565b6112f081336116bf565b50565b5f5f80516020611ced83398151915261130c8484610ce7565b61138b575f848152602082815260408083206001600160a01b03871684529091529020805460ff191660011790556113413390565b6001600160a01b0316836001600160a01b0316857f2f8788117e7eff1d82e926ec794901d17c78024a50270940304540a733656f0d60405160405180910390a46001915050610755565b5f915050610755565b5f5f80516020611ced8339815191526113ad8484610ce7565b1561138b575f848152602082815260408083206001600160a01b0387168085529252808320805460ff1916905551339287917ff6391f5c32d9c69d2a47ea670b442974b53935d1edc7fd64eb21e047a839171b9190a46001915050610755565b6114156116f8565b565b306001600160a01b037f000000000000000000000000000000000000000000000000000000000000000016148061149d57507f00000000000000000000000000000000000000000000000000000000000000006001600160a01b03166114915f80516020611ccd833981519152546001600160a01b031690565b6001600160a01b031614155b156114155760405163703e46dd60e11b815260040160405180910390fd5b7fcab03bc4dbcc648cd59d6bbe9f848d1e9092f914016aa290ee92e18700d1e6f9610b09816112e6565b816001600160a01b03166352d1902d6040518163ffffffff1660e01b8152600401602060405180830381865afa92505050801561153f575060408051601f3d908101601f1916820190925261153c91810190611c7a565b60015b61156757604051634c9c8ce360e01b81526001600160a01b03831660048201526024016107b1565b5f80516020611ccd833981519152811461159757604051632a87526960e21b8152600481018290526024016107b1565b61086c8383611741565b306001600160a01b037f000000000000000000000000000000000000000000000000000000000000000016146114155760405163703e46dd60e11b815260040160405180910390fd5b7fcd5ed15c6e187e77e9aee88184c21f4f2182ab5827cb3b7e07fbedcd63f033005460ff16156114155760405163d93c066560e01b815260040160405180910390fd5b5f81815260208190526040902060028101544390811161164c57505050565b5f82600201548261165d9190611be7565b6004840154909150156116b5575f836004015484600101548560070154846116859190611bfa565b61168f9190611bfa565b6116999190611c11565b905080846003015f8282546116ae9190611bd4565b9091555050505b5060029091015550565b6116c98282610ce7565b610b095760405163e2517d3f60e01b81526001600160a01b0382166004820152602481018390526044016107b1565b7ff0c57e16840df040f15088dc2f81fe391c3923bec73e23a9662efc9c229c6a0054600160401b900460ff1661141557604051631afcd79f60e31b815260040160405180910390fd5b61174a82611796565b6040516001600160a01b038316907fbc7cd75a20ee27fd9adebab32041f755214dbc6bffa90cc0225b39da2e5c2d3b905f90a280511561178e5761086c82826117f9565b610b0961186b565b806001600160a01b03163b5f036117cb57604051634c9c8ce360e01b81526001600160a01b03821660048201526024016107b1565b5f80516020611ccd83398151915280546001600160a01b0319166001600160a01b0392909216919091179055565b60605f80846001600160a01b0316846040516118159190611c91565b5f60405180830381855af49150503d805f811461184d576040519150601f19603f3d011682016040523d82523d5f602084013e611852565b606091505b509150915061186285838361188a565b95945050505050565b34156114155760405163b398979f60e01b815260040160405180910390fd5b60608261189f5761189a826118e9565b6118e2565b81511580156118b657506001600160a01b0384163b155b156118df57604051639996b31560e01b81526001600160a01b03851660048201526024016107b1565b50805b9392505050565b8051156118f95780518082602001fd5b604051630a12f52160e11b815260040160405180910390fd5b5f60208284031215611922575f80fd5b81356001600160e01b0319811681146118e2575f80fd5b5f60208284031215611949575f80fd5b5035919050565b6001600160a01b03811681146112f0575f80fd5b5f8060408385031215611975575f80fd5b82359150602083013561198781611950565b809150509250929050565b5f602082840312156119a2575f80fd5b81356118e281611950565b5f805f80608085870312156119c0575f80fd5b84356119cb81611950565b966020860135965060408601359560600135945092505050565b634e487b7160e01b5f52604160045260245ffd5b5f8060408385031215611a0a575f80fd5b8235611a1581611950565b9150602083013567ffffffffffffffff80821115611a31575f80fd5b818501915085601f830112611a44575f80fd5b813581811115611a5657611a566119e5565b604051601f8201601f19908116603f01168101908382118183101715611a7e57611a7e6119e5565b81604052828152886020848701011115611a96575f80fd5b826020860160208301375f6020848301015280955050505050509250929050565b5f8060408385031215611ac8575f80fd5b8235611ad381611950565b946020939093013593505050565b5f8060408385031215611af2575f80fd5b50508035926020909101359150565b5f5b83811015611b1b578181015183820152602001611b03565b50505f910152565b602081525f8251806020840152611b41816040850160208701611b01565b601f01601f19169190910160400192915050565b5f805f805f8060c08789031215611b6a575f80fd5b863595506020870135611b7c81611950565b95989597505050506040840135936060810135936080820135935060a0909101359150565b5f60208284031215611bb1575f80fd5b815180151581146118e2575f80fd5b634e487b7160e01b5f52601160045260245ffd5b8082018082111561075557610755611bc0565b8181038181111561075557610755611bc0565b808202811582820484141761075557610755611bc0565b5f82611c2b57634e487b7160e01b5f52601260045260245ffd5b500490565b6020808252602a908201527f737461727420626c6f636b206d75737420626520736d616c6c6572207468616e60408201526920656e6420626c6f636b60b01b606082015260800190565b5f60208284031215611c8a575f80fd5b5051919050565b5f8251611ca2818460208701611b01565b919091019291505056fe589d473ba17c0f47d494622893831497bad25919b9afb8e33e9521b8963fccde360894a13ba1a3210667c828492db98dca3e2076cc3735a920a3ca505d382bbc02dd7bc7dec4dceedda775e58dd541e08a116c6c53815c0bd028192f7b626800a264697066735822122080f3dd3fce547c5ad4223bb153daff02287dc112ccd8b933e0f78157e38963c164736f6c63430008180033",
    "sourcePath": "d:/web3/B2Stake/src/B2Stake.sol",
    "compiler": {
        "name": "solc",
        "version": "0.8.24+commit.e11b9ed9"
    },
    "functionHashes": {
        "ADMIN_ROLE()": "75b238fc",
        "B2()": "dd57a76e",
        "BTC_PID()": "ee19d698",
        "DEFAULT_ADMIN_ROLE()": "a217fddf",
        "UPGRADE_INTERFACE_VERSION()": "ad3cb1cc",
        "UPGRADE_ROLE()": "b908afa8",
        "addPool(uint256,address,uint256,uint256,uint256,uint256)": "f9646aae",
        "authorizeUpgrader(address)": "4ca171dc",
        "authorizedUpgraders(address)": "6a3c1525",
        "b2PerBlock()": "28d18b13",
        "calculateReward(uint256,address)": "a18f07a0",
        "claimPaused()": "ab5e124a",
        "claimReward(uint256)": "ae169a50",
        "endBlock()": "083c6323",
        "getRoleAdmin(bytes32)": "248a9ca3",
        "grantRole(bytes32,address)": "2f2ff15d",
        "hasRole(bytes32,address)": "91d14854",
        "initialize(address,uint256,uint256,uint256)": "4ec81af1",
        "pause()": "8456cb59",
        "paused()": "5c975abb",
        "pools(uint256)": "ac4afa38",
        "proxiableUUID()": "52d1902d",
        "renounceRole(bytes32,address)": "36568abe",
        "revokeRole(bytes32,address)": "d547741f",
        "setB2(address)": "f0c1fd44",
        "setB2PerBlock(uint256)": "0a50f403",
        "setEndBlock(uint256)": "c713aa94",
        "setStartBlock(uint256)": "f35e4a6e",
        "stake(uint256,uint256)": "7b0472f0",
        "startBlock()": "48cd4cb1",
        "supportsInterface(bytes4)": "01ffc9a7",
        "unpause()": "3f4ba83a",
        "unstake(uint256,uint256)": "9e2c8a5b",
        "upgradeToAndCall(address,bytes)": "4f1ef286",
        "users(address,uint256)": "54a02f9e"
    },
    "gasEstimates": {
        "creation": {
            "codeDepositCost": "1498000",
            "executionCost": "infinite",
            "totalCost": "infinite"
        },
        "external": {
            "ADMIN_ROLE()": "infinite",
            "B2()": "2391",
            "BTC_PID()": "259",
            "DEFAULT_ADMIN_ROLE()": "260",
            "UPGRADE_INTERFACE_VERSION()": "infinite",
            "UPGRADE_ROLE()": "261",
            "addPool(uint256,address,uint256,uint256,uint256,uint256)": "144293",
            "authorizeUpgrader(address)": "infinite",
            "authorizedUpgraders(address)": "2622",
            "b2PerBlock()": "2340",
            "calculateReward(uint256,address)": "infinite",
            "claimPaused()": "2387",
            "claimReward(uint256)": "infinite",
            "endBlock()": "2363",
            "getRoleAdmin(bytes32)": "infinite",
            "grantRole(bytes32,address)": "infinite",
            "hasRole(bytes32,address)": "infinite",
            "initialize(address,uint256,uint256,uint256)": "infinite",
            "pause()": "infinite",
            "paused()": "2381",
            "pools(uint256)": "17531",
            "proxiableUUID()": "infinite",
            "renounceRole(bytes32,address)": "29182",
            "revokeRole(bytes32,address)": "infinite",
            "setB2(address)": "infinite",
            "setB2PerBlock(uint256)": "infinite",
            "setEndBlock(uint256)": "infinite",
            "setStartBlock(uint256)": "infinite",
            "stake(uint256,uint256)": "infinite",
            "startBlock()": "2340",
            "supportsInterface(bytes4)": "470",
            "unpause()": "infinite",
            "unstake(uint256,uint256)": "infinite",
            "upgradeToAndCall(address,bytes)": "infinite",
            "users(address,uint256)": "6936"
        },
        "internal": {
            "_authorizeUpgrade(address)": "infinite",
            "_updatePool(uint256)": "infinite"
        }
    }
}