{
    "contractName": "B2Stake",
    "abi": [
        {
            "inputs": [],
            "name": "AccessControlBadConfirmation",
            "type": "error"
        },
        {
            "inputs": [
                {
                    "internalType": "address",
                    "name": "account",
                    "type": "address"
                },
                {
                    "internalType": "bytes32",
                    "name": "neededRole",
                    "type": "bytes32"
                }
            ],
            "name": "AccessControlUnauthorizedAccount",
            "type": "error"
        },
        {
            "inputs": [
                {
                    "internalType": "address",
                    "name": "target",
                    "type": "address"
                }
            ],
            "name": "AddressEmptyCode",
            "type": "error"
        },
        {
            "inputs": [
                {
                    "internalType": "address",
                    "name": "implementation",
                    "type": "address"
                }
            ],
            "name": "ERC1967InvalidImplementation",
            "type": "error"
        },
        {
            "inputs": [],
            "name": "ERC1967NonPayable",
            "type": "error"
        },
        {
            "inputs": [],
            "name": "EnforcedPause",
            "type": "error"
        },
        {
            "inputs": [],
            "name": "ExpectedPause",
            "type": "error"
        },
        {
            "inputs": [],
            "name": "FailedInnerCall",
            "type": "error"
        },
        {
            "inputs": [],
            "name": "InvalidInitialization",
            "type": "error"
        },
        {
            "inputs": [],
            "name": "NotInitializing",
            "type": "error"
        },
        {
            "inputs": [],
            "name": "UUPSUnauthorizedCallContext",
            "type": "error"
        },
        {
            "inputs": [
                {
                    "internalType": "bytes32",
                    "name": "slot",
                    "type": "bytes32"
                }
            ],
            "name": "UUPSUnsupportedProxiableUUID",
            "type": "error"
        },
        {
            "anonymous": false,
            "inputs": [
                {
                    "indexed": false,
                    "internalType": "uint64",
                    "name": "version",
                    "type": "uint64"
                }
            ],
            "name": "Initialized",
            "type": "event"
        },
        {
            "anonymous": false,
            "inputs": [
                {
                    "indexed": false,
                    "internalType": "address",
                    "name": "account",
                    "type": "address"
                }
            ],
            "name": "Paused",
            "type": "event"
        },
        {
            "anonymous": false,
            "inputs": [],
            "name": "Paused",
            "type": "event"
        },
        {
            "anonymous": false,
            "inputs": [
                {
                    "indexed": false,
                    "internalType": "uint256",
                    "name": "pid",
                    "type": "uint256"
                },
                {
                    "indexed": false,
                    "internalType": "address",
                    "name": "stTokenAddress",
                    "type": "address"
                },
                {
                    "indexed": false,
                    "internalType": "uint256",
                    "name": "poolWeight",
                    "type": "uint256"
                },
                {
                    "indexed": false,
                    "internalType": "uint256",
                    "name": "minDepositAmount",
                    "type": "uint256"
                },
                {
                    "indexed": false,
                    "internalType": "uint256",
                    "name": "unstakeLockedBlocks",
                    "type": "uint256"
                },
                {
                    "indexed": false,
                    "internalType": "uint256",
                    "name": "rewardPerBlock",
                    "type": "uint256"
                }
            ],
            "name": "PoolAdded",
            "type": "event"
        },
        {
            "anonymous": false,
            "inputs": [
                {
                    "indexed": false,
                    "internalType": "uint256",
                    "name": "pid",
                    "type": "uint256"
                },
                {
                    "indexed": false,
                    "internalType": "address",
                    "name": "stTokenAddress",
                    "type": "address"
                },
                {
                    "indexed": false,
                    "internalType": "uint256",
                    "name": "poolWeight",
                    "type": "uint256"
                },
                {
                    "indexed": false,
                    "internalType": "uint256",
                    "name": "minDepositAmount",
                    "type": "uint256"
                },
                {
                    "indexed": false,
                    "internalType": "uint256",
                    "name": "unstakeLockedBlocks",
                    "type": "uint256"
                },
                {
                    "indexed": false,
                    "internalType": "uint256",
                    "name": "rewardPerBlock",
                    "type": "uint256"
                }
            ],
            "name": "PoolUpdated",
            "type": "event"
        },
        {
            "anonymous": false,
            "inputs": [
                {
                    "indexed": true,
                    "internalType": "address",
                    "name": "user",
                    "type": "address"
                },
                {
                    "indexed": false,
                    "internalType": "uint256",
                    "name": "pid",
                    "type": "uint256"
                },
                {
                    "indexed": false,
                    "internalType": "uint256",
                    "name": "amount",
                    "type": "uint256"
                }
            ],
            "name": "RewardClaimed",
            "type": "event"
        },
        {
            "anonymous": false,
            "inputs": [
                {
                    "indexed": true,
                    "internalType": "bytes32",
                    "name": "role",
                    "type": "bytes32"
                },
                {
                    "indexed": true,
                    "internalType": "bytes32",
                    "name": "previousAdminRole",
                    "type": "bytes32"
                },
                {
                    "indexed": true,
                    "internalType": "bytes32",
                    "name": "newAdminRole",
                    "type": "bytes32"
                }
            ],
            "name": "RoleAdminChanged",
            "type": "event"
        },
        {
            "anonymous": false,
            "inputs": [
                {
                    "indexed": true,
                    "internalType": "bytes32",
                    "name": "role",
                    "type": "bytes32"
                },
                {
                    "indexed": true,
                    "internalType": "address",
                    "name": "account",
                    "type": "address"
                },
                {
                    "indexed": true,
                    "internalType": "address",
                    "name": "sender",
                    "type": "address"
                }
            ],
            "name": "RoleGranted",
            "type": "event"
        },
        {
            "anonymous": false,
            "inputs": [
                {
                    "indexed": true,
                    "internalType": "bytes32",
                    "name": "role",
                    "type": "bytes32"
                },
                {
                    "indexed": true,
                    "internalType": "address",
                    "name": "account",
                    "type": "address"
                },
                {
                    "indexed": true,
                    "internalType": "address",
                    "name": "sender",
                    "type": "address"
                }
            ],
            "name": "RoleRevoked",
            "type": "event"
        },
        {
            "anonymous": false,
            "inputs": [
                {
                    "indexed": true,
                    "internalType": "contract IERC20",
                    "name": "B2",
                    "type": "address"
                }
            ],
            "name": "SetB2",
            "type": "event"
        },
        {
            "anonymous": false,
            "inputs": [
                {
                    "indexed": false,
                    "internalType": "uint256",
                    "name": "b2PerBlock",
                    "type": "uint256"
                }
            ],
            "name": "SetB2PerBlock",
            "type": "event"
        },
        {
            "anonymous": false,
            "inputs": [
                {
                    "indexed": false,
                    "internalType": "uint256",
                    "name": "endBlock",
                    "type": "uint256"
                }
            ],
            "name": "SetEndBlock",
            "type": "event"
        },
        {
            "anonymous": false,
            "inputs": [
                {
                    "indexed": false,
                    "internalType": "uint256",
                    "name": "startBlock",
                    "type": "uint256"
                }
            ],
            "name": "SetStartBlock",
            "type": "event"
        },
        {
            "anonymous": false,
            "inputs": [
                {
                    "indexed": true,
                    "internalType": "address",
                    "name": "user",
                    "type": "address"
                },
                {
                    "indexed": false,
                    "internalType": "uint256",
                    "name": "pid",
                    "type": "uint256"
                },
                {
                    "indexed": false,
                    "internalType": "uint256",
                    "name": "amount",
                    "type": "uint256"
                }
            ],
            "name": "Staked",
            "type": "event"
        },
        {
            "anonymous": false,
            "inputs": [
                {
                    "indexed": false,
                    "internalType": "address",
                    "name": "account",
                    "type": "address"
                }
            ],
            "name": "Unpaused",
            "type": "event"
        },
        {
            "anonymous": false,
            "inputs": [],
            "name": "Unpaused",
            "type": "event"
        },
        {
            "anonymous": false,
            "inputs": [
                {
                    "indexed": true,
                    "internalType": "address",
                    "name": "user",
                    "type": "address"
                },
                {
                    "indexed": false,
                    "internalType": "uint256",
                    "name": "pid",
                    "type": "uint256"
                },
                {
                    "indexed": false,
                    "internalType": "uint256",
                    "name": "amount",
                    "type": "uint256"
                }
            ],
            "name": "Unstaked",
            "type": "event"
        },
        {
            "anonymous": false,
            "inputs": [
                {
                    "indexed": true,
                    "internalType": "address",
                    "name": "implementation",
                    "type": "address"
                }
            ],
            "name": "Upgraded",
            "type": "event"
        },
        {
            "anonymous": false,
            "inputs": [
                {
                    "indexed": true,
                    "internalType": "address",
                    "name": "upgrader",
                    "type": "address"
                }
            ],
            "name": "UpgraderAuthorized",
            "type": "event"
        },
        {
            "anonymous": false,
            "inputs": [
                {
                    "indexed": true,
                    "internalType": "address",
                    "name": "upgrader",
                    "type": "address"
                }
            ],
            "name": "UpgraderRevoked",
            "type": "event"
        },
        {
            "inputs": [],
            "name": "ADMIN_ROLE",
            "outputs": [
                {
                    "internalType": "bytes32",
                    "name": "",
                    "type": "bytes32"
                }
            ],
            "stateMutability": "view",
            "type": "function"
        },
        {
            "inputs": [],
            "name": "B2",
            "outputs": [
                {
                    "internalType": "contract IERC20",
                    "name": "",
                    "type": "address"
                }
            ],
            "stateMutability": "view",
            "type": "function"
        },
        {
            "inputs": [],
            "name": "BTC_PID",
            "outputs": [
                {
                    "internalType": "uint256",
                    "name": "",
                    "type": "uint256"
                }
            ],
            "stateMutability": "view",
            "type": "function"
        },
        {
            "inputs": [],
            "name": "DEFAULT_ADMIN_ROLE",
            "outputs": [
                {
                    "internalType": "bytes32",
                    "name": "",
                    "type": "bytes32"
                }
            ],
            "stateMutability": "view",
            "type": "function"
        },
        {
            "inputs": [],
            "name": "UPGRADE_INTERFACE_VERSION",
            "outputs": [
                {
                    "internalType": "string",
                    "name": "",
                    "type": "string"
                }
            ],
            "stateMutability": "view",
            "type": "function"
        },
        {
            "inputs": [],
            "name": "UPGRADE_ROLE",
            "outputs": [
                {
                    "internalType": "bytes32",
                    "name": "",
                    "type": "bytes32"
                }
            ],
            "stateMutability": "view",
            "type": "function"
        },
        {
            "inputs": [
                {
                    "internalType": "uint256",
                    "name": "_pid",
                    "type": "uint256"
                },
                {
                    "internalType": "address",
                    "name": "_stTokenAddress",
                    "type": "address"
                },
                {
                    "internalType": "uint256",
                    "name": "_poolWeight",
                    "type": "uint256"
                },
                {
                    "internalType": "uint256",
                    "name": "_minDepositAmount",
                    "type": "uint256"
                },
                {
                    "internalType": "uint256",
                    "name": "_unstakeLockedBlocks",
                    "type": "uint256"
                },
                {
                    "internalType": "uint256",
                    "name": "_rewardPerBlock",
                    "type": "uint256"
                }
            ],
            "name": "addPool",
            "outputs": [],
            "stateMutability": "nonpayable",
            "type": "function"
        },
        {
            "inputs": [
                {
                    "internalType": "address",
                    "name": "_upgrader",
                    "type": "address"
                }
            ],
            "name": "authorizeUpgrader",
            "outputs": [],
            "stateMutability": "nonpayable",
            "type": "function"
        },
        {
            "inputs": [
                {
                    "internalType": "address",
                    "name": "",
                    "type": "address"
                }
            ],
            "name": "authorizedUpgraders",
            "outputs": [
                {
                    "internalType": "bool",
                    "name": "",
                    "type": "bool"
                }
            ],
            "stateMutability": "view",
            "type": "function"
        },
        {
            "inputs": [],
            "name": "b2PerBlock",
            "outputs": [
                {
                    "internalType": "uint256",
                    "name": "",
                    "type": "uint256"
                }
            ],
            "stateMutability": "view",
            "type": "function"
        },
        {
            "inputs": [
                {
                    "internalType": "uint256",
                    "name": "_pid",
                    "type": "uint256"
                },
                {
                    "internalType": "address",
                    "name": "_user",
                    "type": "address"
                }
            ],
            "name": "calculateReward",
            "outputs": [
                {
                    "internalType": "uint256",
                    "name": "",
                    "type": "uint256"
                }
            ],
            "stateMutability": "view",
            "type": "function"
        },
        {
            "inputs": [],
            "name": "claimPaused",
            "outputs": [
                {
                    "internalType": "bool",
                    "name": "",
                    "type": "bool"
                }
            ],
            "stateMutability": "view",
            "type": "function"
        },
        {
            "inputs": [
                {
                    "internalType": "uint256",
                    "name": "_pid",
                    "type": "uint256"
                }
            ],
            "name": "claimReward",
            "outputs": [],
            "stateMutability": "nonpayable",
            "type": "function"
        },
        {
            "inputs": [],
            "name": "endBlock",
            "outputs": [
                {
                    "internalType": "uint256",
                    "name": "",
                    "type": "uint256"
                }
            ],
            "stateMutability": "view",
            "type": "function"
        },
        {
            "inputs": [
                {
                    "internalType": "bytes32",
                    "name": "role",
                    "type": "bytes32"
                }
            ],
            "name": "getRoleAdmin",
            "outputs": [
                {
                    "internalType": "bytes32",
                    "name": "",
                    "type": "bytes32"
                }
            ],
            "stateMutability": "view",
            "type": "function"
        },
        {
            "inputs": [
                {
                    "internalType": "bytes32",
                    "name": "role",
                    "type": "bytes32"
                },
                {
                    "internalType": "address",
                    "name": "account",
                    "type": "address"
                }
            ],
            "name": "grantRole",
            "outputs": [],
            "stateMutability": "nonpayable",
            "type": "function"
        },
        {
            "inputs": [
                {
                    "internalType": "bytes32",
                    "name": "role",
                    "type": "bytes32"
                },
                {
                    "internalType": "address",
                    "name": "account",
                    "type": "address"
                }
            ],
            "name": "hasRole",
            "outputs": [
                {
                    "internalType": "bool",
                    "name": "",
                    "type": "bool"
                }
            ],
            "stateMutability": "view",
            "type": "function"
        },
        {
            "inputs": [
                {
                    "internalType": "contract IERC20",
                    "name": "_B2",
                    "type": "address"
                },
                {
                    "internalType": "uint256",
                    "name": "_startBlock",
                    "type": "uint256"
                },
                {
                    "internalType": "uint256",
                    "name": "_endBlock",
                    "type": "uint256"
                },
                {
                    "internalType": "uint256",
                    "name": "_b2PerBlock",
                    "type": "uint256"
                }
            ],
            "name": "initialize",
            "outputs": [],
            "stateMutability": "nonpayable",
            "type": "function"
        },
        {
            "inputs": [],
            "name": "pause",
            "outputs": [],
            "stateMutability": "nonpayable",
            "type": "function"
        },
        {
            "inputs": [],
            "name": "paused",
            "outputs": [
                {
                    "internalType": "bool",
                    "name": "",
                    "type": "bool"
                }
            ],
            "stateMutability": "view",
            "type": "function"
        },
        {
            "inputs": [
                {
                    "internalType": "uint256",
                    "name": "",
                    "type": "uint256"
                }
            ],
            "name": "pools",
            "outputs": [
                {
                    "internalType": "address",
                    "name": "stTokenAddress",
                    "type": "address"
                },
                {
                    "internalType": "uint256",
                    "name": "poolWeight",
                    "type": "uint256"
                },
                {
                    "internalType": "uint256",
                    "name": "lastRewardBlock",
                    "type": "uint256"
                },
                {
                    "internalType": "uint256",
                    "name": "accB2PerST",
                    "type": "uint256"
                },
                {
                    "internalType": "uint256",
                    "name": "stTokenAmount",
                    "type": "uint256"
                },
                {
                    "internalType": "uint256",
                    "name": "minDepositAmount",
                    "type": "uint256"
                },
                {
                    "internalType": "uint256",
                    "name": "unstakeLockedBlocks",
                    "type": "uint256"
                }
            ],
            "stateMutability": "view",
            "type": "function"
        },
        {
            "inputs": [],
            "name": "proxiableUUID",
            "outputs": [
                {
                    "internalType": "bytes32",
                    "name": "",
                    "type": "bytes32"
                }
            ],
            "stateMutability": "view",
            "type": "function"
        },
        {
            "inputs": [
                {
                    "internalType": "bytes32",
                    "name": "role",
                    "type": "bytes32"
                },
                {
                    "internalType": "address",
                    "name": "callerConfirmation",
                    "type": "address"
                }
            ],
            "name": "renounceRole",
            "outputs": [],
            "stateMutability": "nonpayable",
            "type": "function"
        },
        {
            "inputs": [
                {
                    "internalType": "bytes32",
                    "name": "role",
                    "type": "bytes32"
                },
                {
                    "internalType": "address",
                    "name": "account",
                    "type": "address"
                }
            ],
            "name": "revokeRole",
            "outputs": [],
            "stateMutability": "nonpayable",
            "type": "function"
        },
        {
            "inputs": [
                {
                    "internalType": "contract IERC20",
                    "name": "_B2",
                    "type": "address"
                }
            ],
            "name": "setB2",
            "outputs": [],
            "stateMutability": "nonpayable",
            "type": "function"
        },
        {
            "inputs": [
                {
                    "internalType": "uint256",
                    "name": "_b2PerBlock",
                    "type": "uint256"
                }
            ],
            "name": "setB2PerBlock",
            "outputs": [],
            "stateMutability": "nonpayable",
            "type": "function"
        },
        {
            "inputs": [
                {
                    "internalType": "uint256",
                    "name": "_endBlock",
                    "type": "uint256"
                }
            ],
            "name": "setEndBlock",
            "outputs": [],
            "stateMutability": "nonpayable",
            "type": "function"
        },
        {
            "inputs": [
                {
                    "internalType": "uint256",
                    "name": "_startBlock",
                    "type": "uint256"
                }
            ],
            "name": "setStartBlock",
            "outputs": [],
            "stateMutability": "nonpayable",
            "type": "function"
        },
        {
            "inputs": [
                {
                    "internalType": "uint256",
                    "name": "_pid",
                    "type": "uint256"
                },
                {
                    "internalType": "uint256",
                    "name": "_amount",
                    "type": "uint256"
                }
            ],
            "name": "stake",
            "outputs": [],
            "stateMutability": "nonpayable",
            "type": "function"
        },
        {
            "inputs": [],
            "name": "startBlock",
            "outputs": [
                {
                    "internalType": "uint256",
                    "name": "",
                    "type": "uint256"
                }
            ],
            "stateMutability": "view",
            "type": "function"
        },
        {
            "inputs": [
                {
                    "internalType": "bytes4",
                    "name": "interfaceId",
                    "type": "bytes4"
                }
            ],
            "name": "supportsInterface",
            "outputs": [
                {
                    "internalType": "bool",
                    "name": "",
                    "type": "bool"
                }
            ],
            "stateMutability": "view",
            "type": "function"
        },
        {
            "inputs": [],
            "name": "unpause",
            "outputs": [],
            "stateMutability": "nonpayable",
            "type": "function"
        },
        {
            "inputs": [
                {
                    "internalType": "uint256",
                    "name": "_pid",
                    "type": "uint256"
                },
                {
                    "internalType": "uint256",
                    "name": "_amount",
                    "type": "uint256"
                }
            ],
            "name": "unstake",
            "outputs": [],
            "stateMutability": "nonpayable",
            "type": "function"
        },
        {
            "inputs": [
                {
                    "internalType": "address",
                    "name": "newImplementation",
                    "type": "address"
                },
                {
                    "internalType": "bytes",
                    "name": "data",
                    "type": "bytes"
                }
            ],
            "name": "upgradeToAndCall",
            "outputs": [],
            "stateMutability": "payable",
            "type": "function"
        },
        {
            "inputs": [
                {
                    "internalType": "address",
                    "name": "",
                    "type": "address"
                },
                {
                    "internalType": "uint256",
                    "name": "",
                    "type": "uint256"
                }
            ],
            "name": "users",
            "outputs": [
                {
                    "internalType": "uint256",
                    "name": "stAmount",
                    "type": "uint256"
                },
                {
                    "internalType": "uint256",
                    "name": "finishedB2",
                    "type": "uint256"
                },
                {
                    "internalType": "uint256",
                    "name": "pendingB2",
                    "type": "uint256"
                }
            ],
            "stateMutability": "view",
            "type": "function"
        },
        {
            "inputs": [
                {
                    "internalType": "uint256",
                    "name": "_pid",
                    "type": "uint256"
                }
            ],
            "name": "withdraw",
            "outputs": [],
            "stateMutability": "nonpayable",
            "type": "function"
        }
    ],
    "bytecode": "60a060405230608052348015610013575f80fd5b5060805161206461003a5f395f81816117c9015281816117f2015261195301526120645ff3fe608060405260043610610207575f3560e01c80637b0472f011610113578063ae169a501161009d578063dd57a76e1161006d578063dd57a76e146106aa578063ee19d69814610512578063f0c1fd44146106e6578063f35e4a6e14610705578063f9646aae14610724575f80fd5b8063ae169a501461061a578063b908afa814610639578063c713aa941461066c578063d547741f1461068b575f80fd5b8063a18f07a0116100e3578063a18f07a0146104f3578063a217fddf14610512578063ab5e124a14610525578063ac4afa381461053e578063ad3cb1cc146105dd575f80fd5b80637b0472f0146104825780638456cb59146104a157806391d14854146104b55780639e2c8a5b146104d4575f80fd5b806348cd4cb11161019457806352d1902d1161016457806352d1902d1461038e57806354a02f9e146103a25780635c975abb146103fe5780636a3c15251461043457806375b238fc14610462575f80fd5b806348cd4cb1146103285780634ca171dc1461033d5780634ec81af11461035c5780634f1ef2861461037b575f80fd5b806328d18b13116101da57806328d18b13146102a25780632e1a7d4d146102b75780632f2ff15d146102d657806336568abe146102f55780633f4ba83a14610314575f80fd5b806301ffc9a71461020b578063083c63231461023f5780630a50f40314610262578063248a9ca314610283575b5f80fd5b348015610216575f80fd5b5061022a610225366004611c0c565b610743565b60405190151581526020015b60405180910390f35b34801561024a575f80fd5b5061025460045481565b604051908152602001610236565b34801561026d575f80fd5b5061028161027c366004611c33565b610779565b005b34801561028e575f80fd5b5061025461029d366004611c33565b610815565b3480156102ad575f80fd5b5061025460055481565b3480156102c2575f80fd5b506102816102d1366004611c33565b610835565b3480156102e1575f80fd5b506102816102f0366004611c5e565b610a9a565b348015610300575f80fd5b5061028161030f366004611c5e565b610ab6565b34801561031f575f80fd5b50610281610aee565b348015610333575f80fd5b5061025460035481565b348015610348575f80fd5b50610281610357366004611c8c565b610b3a565b348015610367575f80fd5b50610281610376366004611ca7565b610b9d565b610281610389366004611cf3565b610d6b565b348015610399575f80fd5b50610254610d8a565b3480156103ad575f80fd5b506103e36103bc366004611db1565b600160208181525f9384526040808520909152918352912080549181015460029091015483565b60408051938452602084019290925290820152606001610236565b348015610409575f80fd5b507fcd5ed15c6e187e77e9aee88184c21f4f2182ab5827cb3b7e07fbedcd63f033005460ff1661022a565b34801561043f575f80fd5b5061022a61044e366004611c8c565b60026020525f908152604090205460ff1681565b34801561046d575f80fd5b506102545f80516020611fcf83398151915281565b34801561048d575f80fd5b5061028161049c366004611ddb565b610da5565b3480156104ac575f80fd5b50610281610f15565b3480156104c0575f80fd5b5061022a6104cf366004611c5e565b610f64565b3480156104df575f80fd5b506102816104ee366004611ddb565b610f9a565b3480156104fe575f80fd5b5061025461050d366004611c5e565b6111e1565b34801561051d575f80fd5b506102545f81565b348015610530575f80fd5b5060065461022a9060ff1681565b348015610549575f80fd5b5061059e610558366004611c33565b5f6020819052908152604090208054600182015460028301546003840154600485015460058601546006909601546001600160a01b039095169593949293919290919087565b604080516001600160a01b0390981688526020880196909652948601939093526060850191909152608084015260a083015260c082015260e001610236565b3480156105e8575f80fd5b5061060d604051806040016040528060058152602001640352e302e360dc1b81525081565b6040516102369190611e1d565b348015610625575f80fd5b50610281610634366004611c33565b611268565b348015610644575f80fd5b506102547fcab03bc4dbcc648cd59d6bbe9f848d1e9092f914016aa290ee92e18700d1e6f981565b348015610677575f80fd5b50610281610686366004611c33565b6113b3565b348015610696575f80fd5b506102816106a5366004611c5e565b611421565b3480156106b5575f80fd5b506006546106ce9061010090046001600160a01b031681565b6040516001600160a01b039091168152602001610236565b3480156106f1575f80fd5b50610281610700366004611c8c565b61143d565b348015610710575f80fd5b5061028161071f366004611c33565b6114ab565b34801561072f575f80fd5b5061028161073e366004611e4f565b611519565b5f6001600160e01b03198216637965db0b60e01b148061077357506301ffc9a760e01b6001600160e01b03198316145b92915050565b5f80516020611fcf8339815191526107908161164a565b5f82116107d85760405162461bcd60e51b815260206004820152601160248201527034b73b30b634b2103830b930b6b2ba32b960791b60448201526064015b60405180910390fd5b60058290556040518281527f3dff801ad9b83a62654f4fa4a16b58beffeb28b7801f6cde6b2b155b4b0ca833906020015b60405180910390a15050565b5f9081525f8051602061200f833981519152602052604090206001015490565b61083d611657565b5f818152602081815260408083203384526001835281842085855290925290912060038101546108a45760405162461bcd60e51b8152602060048201526012602482015271139bc81d5b9cdd185ad9481c995c5d595cdd60721b60448201526064016107cf565b5f5b6003820154811015610a9457438260030182815481106108c8576108c8611e9b565b905f5260205f2090600202016001015411610a8c5782546003830180546001600160a01b039092169163a9059cbb9133918590811061090957610909611e9b565b5f9182526020909120600290910201546040516001600160e01b031960e085901b1681526001600160a01b03909216600483015260248201526044016020604051808303815f875af1158015610961573d5f803e3d5ffd5b505050506040513d601f19601f820116820180604052508101906109859190611eaf565b5081600301818154811061099b5761099b611e9b565b905f5260205f2090600202015f0154825f015f8282546109bb9190611ee2565b9091555050600382018054829081106109d6576109d6611e9b565b905f5260205f2090600202015f0154836004015f8282546109f79190611ee2565b9091555050600382018054610a0e90600190611ee2565b81548110610a1e57610a1e611e9b565b905f5260205f209060020201826003018281548110610a3f57610a3f611e9b565b5f9182526020909120825460029092020190815560019182015491015560038201805480610a6f57610a6f611ef5565b5f8281526020812060025f19909301928302018181556001015590555b6001016108a6565b50505050565b610aa382610815565b610aac8161164a565b610a94838361169c565b6001600160a01b0381163314610adf5760405163334bd91960e11b815260040160405180910390fd5b610ae9828261173d565b505050565b5f80516020611fcf833981519152610b058161164a565b6006805460ff191690556040517fa45f47fdea8a1efdd9029a5691c7f759c32b7c698632b563573e155625d16933905f90a150565b5f80516020611fcf833981519152610b518161164a565b6001600160a01b0382165f81815260026020526040808220805460ff19166001179055517fd4f457f9bb396f9f819dce7506ca19549d73197472ab3a18322071c0203aba099190a25050565b7ff0c57e16840df040f15088dc2f81fe391c3923bec73e23a9662efc9c229c6a008054600160401b810460ff16159067ffffffffffffffff165f81158015610be25750825b90505f8267ffffffffffffffff166001148015610bfe5750303b155b905081158015610c0c575080155b15610c2a5760405163f92ee8a960e01b815260040160405180910390fd5b845467ffffffffffffffff191660011785558315610c5457845460ff60401b1916600160401b1785555b868811158015610c6357505f86115b610ca45760405162461bcd60e51b8152602060048201526012602482015271696e76616c696420706172616d657465727360701b60448201526064016107cf565b610cac6117b6565b610cb46117b6565b610cbe5f3361169c565b50610ce97fcab03bc4dbcc648cd59d6bbe9f848d1e9092f914016aa290ee92e18700d1e6f93361169c565b50610d015f80516020611fcf8339815191523361169c565b50610d0b8961143d565b6003889055600487905560058690558315610d6057845460ff60401b19168555604051600181527fc7f505b2f371ae2175ee4913f4499e1f2633a7b5936321eed1cdaeb6115181d29060200160405180910390a15b505050505050505050565b610d736117be565b610d7c82611862565b610d86828261188c565b5050565b5f610d93611948565b505f80516020611fef83398151915290565b610dad611657565b5f82815260208181526040808320338452600183528184208685529092529091206005820154831015610e225760405162461bcd60e51b815260206004820152601c60248201527f416d6f756e742062656c6f77206d696e696d756d206465706f7369740000000060448201526064016107cf565b610e2b84611991565b81546040516323b872dd60e01b8152336004820152306024820152604481018590526001600160a01b03909116906323b872dd906064016020604051808303815f875af1158015610e7e573d5f803e3d5ffd5b505050506040513d601f19601f82011682018060405250810190610ea29190611eaf565b5082815f015f828254610eb59190611f09565b9250508190555082826004015f828254610ecf9190611f09565b9091555050604080518581526020810185905233917f1449c6dd7851abc30abf37f57715f492010519147cc2652fbc38202c18a6ee90910160405180910390a250505050565b5f80516020611fcf833981519152610f2c8161164a565b6006805460ff191660011790556040517f9e87fac88ff661f02d44f95383c817fece4bce600a3dab7a54406878b965e752905f90a150565b5f9182525f8051602061200f833981519152602090815260408084206001600160a01b0393909316845291905290205460ff1690565b610fa2611657565b5f828152602081815260408083203384526001835281842086855290925290912080548311156110145760405162461bcd60e51b815260206004820152601c60248201527f416d6f756e742065786365656473207374616b656420616d6f756e740000000060448201526064016107cf565b61101d84611991565b5f82600601544361102e9190611f09565b6040805180820182528681526020808201848152600387018054600180820183555f9283529390912093516002909102909301928355519101558454905163a9059cbb60e01b8152336004820152602481018790529192506001600160a01b03169063a9059cbb906044016020604051808303815f875af11580156110b5573d5f803e3d5ffd5b505050506040513d601f19601f820116820180604052508101906110d99190611eaf565b5083825f015f8282546110ec9190611ee2565b9250508190555083836004015f8282546111069190611ee2565b90915550506001820154600384015483545f9291670de0b6b3a76400009161112e9190611f1c565b6111389190611f33565b6111429190611ee2565b905080156111605780836002015461115a9190611f09565b60028401555b8484600401546111709190611ee2565b600485015560038401548354670de0b6b3a76400009161118f91611f1c565b6111999190611f33565b6001840155604080518781526020810187905233917f7fc4727e062e336010f2c282598ef5f14facb3de68cf8195c2f23e1454b2b74e910160405180910390a2505050505050565b5f828152602081815260408083206001600160a01b0385168452600183528184208685529092528220600282015443908111611222575f9350505050610773565b5f670de0b6b3a76400008460030154845f015461123f9190611f1c565b6112499190611f33565b90505f83600101548261125c9190611ee2565b98975050505050505050565b611270611657565b335f8181526001602090815260408083208584529091528120916112959084906111e1565b90505f81116112db5760405162461bcd60e51b81526020600482015260126024820152714e6f2072657761726420746f20636c61696d60701b60448201526064016107cf565b5f826002018190555080826001015f8282546112f79190611f09565b909155505060065460405163a9059cbb60e01b8152336004820152602481018390526101009091046001600160a01b03169063a9059cbb906044016020604051808303815f875af115801561134e573d5f803e3d5ffd5b505050506040513d601f19601f820116820180604052508101906113729190611eaf565b50604080518481526020810183905233917ff01da32686223933d8a18a391060918c7f11a3648639edd87ae013e2e2731743910160405180910390a2505050565b5f80516020611fcf8339815191526113ca8161164a565b8160035411156113ec5760405162461bcd60e51b81526004016107cf90611f52565b60048290556040518281527f1132c5baccb51da3d049fabc819697dc845fa224ad59d9b555507d6446b4085090602001610809565b61142a82610815565b6114338161164a565b610a94838361173d565b5f80516020611fcf8339815191526114548161164a565b60068054610100600160a81b0319166101006001600160a01b0385811682029290921792839055604051920416907f43a08088ea699b57145d84833cb89580dd3a00159e7d17452b08de6532da1ac3905f90a25050565b5f80516020611fcf8339815191526114c28161164a565b6004548211156114e45760405162461bcd60e51b81526004016107cf90611f52565b60038290556040518281527f63b90b79f11a0f132bcb2c4a4ddd44abda45c1308a83b2919318df7f5f8b7be490602001610809565b5f86815260208190526040812080546001600160a01b0319166001600160a01b03881617815560018101869055600581018590556006810184905560028101549091036115e2575f600354431161157257600354611574565b435b60028301819055604080518a81526001600160a01b038a166020820152908101889052606081018790526080810186905260a081018590529091507f3ff6ba61e9c77719adb4a90993171e493ca68a3469805a3cf4e901b3c317bf329060c00160405180910390a150611641565b604080518881526001600160a01b0388166020820152908101869052606081018590526080810184905260a081018390527f66be840b97a125c8241daa6e7dcb3b9c653150abd802a17c46d3988f509034439060c00160405180910390a15b50505050505050565b61165481336119b9565b50565b7fcd5ed15c6e187e77e9aee88184c21f4f2182ab5827cb3b7e07fbedcd63f033005460ff161561169a5760405163d93c066560e01b815260040160405180910390fd5b565b5f5f8051602061200f8339815191526116b58484610f64565b611734575f848152602082815260408083206001600160a01b03871684529091529020805460ff191660011790556116ea3390565b6001600160a01b0316836001600160a01b0316857f2f8788117e7eff1d82e926ec794901d17c78024a50270940304540a733656f0d60405160405180910390a46001915050610773565b5f915050610773565b5f5f8051602061200f8339815191526117568484610f64565b15611734575f848152602082815260408083206001600160a01b0387168085529252808320805460ff1916905551339287917ff6391f5c32d9c69d2a47ea670b442974b53935d1edc7fd64eb21e047a839171b9190a46001915050610773565b61169a6119f2565b306001600160a01b037f000000000000000000000000000000000000000000000000000000000000000016148061184457507f00000000000000000000000000000000000000000000000000000000000000006001600160a01b03166118385f80516020611fef833981519152546001600160a01b031690565b6001600160a01b031614155b1561169a5760405163703e46dd60e11b815260040160405180910390fd5b7fcab03bc4dbcc648cd59d6bbe9f848d1e9092f914016aa290ee92e18700d1e6f9610d868161164a565b816001600160a01b03166352d1902d6040518163ffffffff1660e01b8152600401602060405180830381865afa9250505080156118e6575060408051601f3d908101601f191682019092526118e391810190611f9c565b60015b61190e57604051634c9c8ce360e01b81526001600160a01b03831660048201526024016107cf565b5f80516020611fef833981519152811461193e57604051632a87526960e21b8152600481018290526024016107cf565b610ae98383611a3b565b306001600160a01b037f0000000000000000000000000000000000000000000000000000000000000000161461169a5760405163703e46dd60e11b815260040160405180910390fd5b5f8181526020819052604090206002810154439081116119b057505050565b60029091015550565b6119c38282610f64565b610d865760405163e2517d3f60e01b81526001600160a01b0382166004820152602481018390526044016107cf565b7ff0c57e16840df040f15088dc2f81fe391c3923bec73e23a9662efc9c229c6a0054600160401b900460ff1661169a57604051631afcd79f60e31b815260040160405180910390fd5b611a4482611a90565b6040516001600160a01b038316907fbc7cd75a20ee27fd9adebab32041f755214dbc6bffa90cc0225b39da2e5c2d3b905f90a2805115611a8857610ae98282611af3565b610d86611b65565b806001600160a01b03163b5f03611ac557604051634c9c8ce360e01b81526001600160a01b03821660048201526024016107cf565b5f80516020611fef83398151915280546001600160a01b0319166001600160a01b0392909216919091179055565b60605f80846001600160a01b031684604051611b0f9190611fb3565b5f60405180830381855af49150503d805f8114611b47576040519150601f19603f3d011682016040523d82523d5f602084013e611b4c565b606091505b5091509150611b5c858383611b84565b95945050505050565b341561169a5760405163b398979f60e01b815260040160405180910390fd5b606082611b9957611b9482611be3565b611bdc565b8151158015611bb057506001600160a01b0384163b155b15611bd957604051639996b31560e01b81526001600160a01b03851660048201526024016107cf565b50805b9392505050565b805115611bf35780518082602001fd5b604051630a12f52160e11b815260040160405180910390fd5b5f60208284031215611c1c575f80fd5b81356001600160e01b031981168114611bdc575f80fd5b5f60208284031215611c43575f80fd5b5035919050565b6001600160a01b0381168114611654575f80fd5b5f8060408385031215611c6f575f80fd5b823591506020830135611c8181611c4a565b809150509250929050565b5f60208284031215611c9c575f80fd5b8135611bdc81611c4a565b5f805f8060808587031215611cba575f80fd5b8435611cc581611c4a565b966020860135965060408601359560600135945092505050565b634e487b7160e01b5f52604160045260245ffd5b5f8060408385031215611d04575f80fd5b8235611d0f81611c4a565b9150602083013567ffffffffffffffff80821115611d2b575f80fd5b818501915085601f830112611d3e575f80fd5b813581811115611d5057611d50611cdf565b604051601f8201601f19908116603f01168101908382118183101715611d7857611d78611cdf565b81604052828152886020848701011115611d90575f80fd5b826020860160208301375f6020848301015280955050505050509250929050565b5f8060408385031215611dc2575f80fd5b8235611dcd81611c4a565b946020939093013593505050565b5f8060408385031215611dec575f80fd5b50508035926020909101359150565b5f5b83811015611e15578181015183820152602001611dfd565b50505f910152565b602081525f8251806020840152611e3b816040850160208701611dfb565b601f01601f19169190910160400192915050565b5f805f805f8060c08789031215611e64575f80fd5b863595506020870135611e7681611c4a565b95989597505050506040840135936060810135936080820135935060a0909101359150565b634e487b7160e01b5f52603260045260245ffd5b5f60208284031215611ebf575f80fd5b81518015158114611bdc575f80fd5b634e487b7160e01b5f52601160045260245ffd5b8181038181111561077357610773611ece565b634e487b7160e01b5f52603160045260245ffd5b8082018082111561077357610773611ece565b808202811582820484141761077357610773611ece565b5f82611f4d57634e487b7160e01b5f52601260045260245ffd5b500490565b6020808252602a908201527f737461727420626c6f636b206d75737420626520736d616c6c6572207468616e60408201526920656e6420626c6f636b60b01b606082015260800190565b5f60208284031215611fac575f80fd5b5051919050565b5f8251611fc4818460208701611dfb565b919091019291505056fe589d473ba17c0f47d494622893831497bad25919b9afb8e33e9521b8963fccde360894a13ba1a3210667c828492db98dca3e2076cc3735a920a3ca505d382bbc02dd7bc7dec4dceedda775e58dd541e08a116c6c53815c0bd028192f7b626800a26469706673582212200233fac597a53ae017a2c427c11367e40839400b7864bdc637e049d936221de664736f6c63430008180033",
    "sourcePath": "d:/web3/B2Stake/src/B2Stake.sol",
    "compiler": {
        "name": "solc",
        "version": "0.8.24+commit.e11b9ed9"
    },
    "functionHashes": {
        "ADMIN_ROLE()": "75b238fc",
        "B2()": "dd57a76e",
        "BTC_PID()": "ee19d698",
        "DEFAULT_ADMIN_ROLE()": "a217fddf",
        "UPGRADE_INTERFACE_VERSION()": "ad3cb1cc",
        "UPGRADE_ROLE()": "b908afa8",
        "addPool(uint256,address,uint256,uint256,uint256,uint256)": "f9646aae",
        "authorizeUpgrader(address)": "4ca171dc",
        "authorizedUpgraders(address)": "6a3c1525",
        "b2PerBlock()": "28d18b13",
        "calculateReward(uint256,address)": "a18f07a0",
        "claimPaused()": "ab5e124a",
        "claimReward(uint256)": "ae169a50",
        "endBlock()": "083c6323",
        "getRoleAdmin(bytes32)": "248a9ca3",
        "grantRole(bytes32,address)": "2f2ff15d",
        "hasRole(bytes32,address)": "91d14854",
        "initialize(address,uint256,uint256,uint256)": "4ec81af1",
        "pause()": "8456cb59",
        "paused()": "5c975abb",
        "pools(uint256)": "ac4afa38",
        "proxiableUUID()": "52d1902d",
        "renounceRole(bytes32,address)": "36568abe",
        "revokeRole(bytes32,address)": "d547741f",
        "setB2(address)": "f0c1fd44",
        "setB2PerBlock(uint256)": "0a50f403",
        "setEndBlock(uint256)": "c713aa94",
        "setStartBlock(uint256)": "f35e4a6e",
        "stake(uint256,uint256)": "7b0472f0",
        "startBlock()": "48cd4cb1",
        "supportsInterface(bytes4)": "01ffc9a7",
        "unpause()": "3f4ba83a",
        "unstake(uint256,uint256)": "9e2c8a5b",
        "upgradeToAndCall(address,bytes)": "4f1ef286",
        "users(address,uint256)": "54a02f9e",
        "withdraw(uint256)": "2e1a7d4d"
    },
    "gasEstimates": {
        "creation": {
            "codeDepositCost": "1658400",
            "executionCost": "infinite",
            "totalCost": "infinite"
        },
        "external": {
            "ADMIN_ROLE()": "infinite",
            "B2()": "2391",
            "BTC_PID()": "259",
            "DEFAULT_ADMIN_ROLE()": "260",
            "UPGRADE_INTERFACE_VERSION()": "infinite",
            "UPGRADE_ROLE()": "261",
            "addPool(uint256,address,uint256,uint256,uint256,uint256)": "122178",
            "authorizeUpgrader(address)": "infinite",
            "authorizedUpgraders(address)": "2622",
            "b2PerBlock()": "2340",
            "calculateReward(uint256,address)": "infinite",
            "claimPaused()": "2387",
            "claimReward(uint256)": "infinite",
            "endBlock()": "2363",
            "getRoleAdmin(bytes32)": "infinite",
            "grantRole(bytes32,address)": "infinite",
            "hasRole(bytes32,address)": "infinite",
            "initialize(address,uint256,uint256,uint256)": "infinite",
            "pause()": "infinite",
            "paused()": "2381",
            "pools(uint256)": "15404",
            "proxiableUUID()": "infinite",
            "renounceRole(bytes32,address)": "29204",
            "revokeRole(bytes32,address)": "infinite",
            "setB2(address)": "infinite",
            "setB2PerBlock(uint256)": "infinite",
            "setEndBlock(uint256)": "infinite",
            "setStartBlock(uint256)": "infinite",
            "stake(uint256,uint256)": "infinite",
            "startBlock()": "2340",
            "supportsInterface(bytes4)": "470",
            "unpause()": "infinite",
            "unstake(uint256,uint256)": "infinite",
            "upgradeToAndCall(address,bytes)": "infinite",
            "users(address,uint256)": "6936",
            "withdraw(uint256)": "infinite"
        },
        "internal": {
            "_authorizeUpgrade(address)": "infinite",
            "_updatePool(uint256)": "24334"
        }
    }
}