{
    "contractName": "B2Stake",
    "abi": [
        {
            "inputs": [
                {
                    "internalType": "address",
                    "name": "_b2TokenAddress",
                    "type": "address"
                }
            ],
            "stateMutability": "nonpayable",
            "type": "constructor"
        },
        {
            "inputs": [
                {
                    "internalType": "address",
                    "name": "owner",
                    "type": "address"
                }
            ],
            "name": "OwnableInvalidOwner",
            "type": "error"
        },
        {
            "inputs": [
                {
                    "internalType": "address",
                    "name": "account",
                    "type": "address"
                }
            ],
            "name": "OwnableUnauthorizedAccount",
            "type": "error"
        },
        {
            "anonymous": false,
            "inputs": [
                {
                    "indexed": true,
                    "internalType": "address",
                    "name": "previousOwner",
                    "type": "address"
                },
                {
                    "indexed": true,
                    "internalType": "address",
                    "name": "newOwner",
                    "type": "address"
                }
            ],
            "name": "OwnershipTransferred",
            "type": "event"
        },
        {
            "anonymous": false,
            "inputs": [],
            "name": "Paused",
            "type": "event"
        },
        {
            "anonymous": false,
            "inputs": [
                {
                    "indexed": false,
                    "internalType": "uint256",
                    "name": "pid",
                    "type": "uint256"
                },
                {
                    "indexed": false,
                    "internalType": "address",
                    "name": "stTokenAddress",
                    "type": "address"
                },
                {
                    "indexed": false,
                    "internalType": "uint256",
                    "name": "poolWeight",
                    "type": "uint256"
                },
                {
                    "indexed": false,
                    "internalType": "uint256",
                    "name": "minDepositAmount",
                    "type": "uint256"
                },
                {
                    "indexed": false,
                    "internalType": "uint256",
                    "name": "unstakeLockedBlocks",
                    "type": "uint256"
                },
                {
                    "indexed": false,
                    "internalType": "uint256",
                    "name": "rewardPerBlock",
                    "type": "uint256"
                }
            ],
            "name": "PoolAdded",
            "type": "event"
        },
        {
            "anonymous": false,
            "inputs": [
                {
                    "indexed": false,
                    "internalType": "uint256",
                    "name": "pid",
                    "type": "uint256"
                },
                {
                    "indexed": false,
                    "internalType": "address",
                    "name": "stTokenAddress",
                    "type": "address"
                },
                {
                    "indexed": false,
                    "internalType": "uint256",
                    "name": "poolWeight",
                    "type": "uint256"
                },
                {
                    "indexed": false,
                    "internalType": "uint256",
                    "name": "minDepositAmount",
                    "type": "uint256"
                },
                {
                    "indexed": false,
                    "internalType": "uint256",
                    "name": "unstakeLockedBlocks",
                    "type": "uint256"
                },
                {
                    "indexed": false,
                    "internalType": "uint256",
                    "name": "rewardPerBlock",
                    "type": "uint256"
                }
            ],
            "name": "PoolUpdated",
            "type": "event"
        },
        {
            "anonymous": false,
            "inputs": [
                {
                    "indexed": true,
                    "internalType": "address",
                    "name": "user",
                    "type": "address"
                },
                {
                    "indexed": false,
                    "internalType": "uint256",
                    "name": "pid",
                    "type": "uint256"
                },
                {
                    "indexed": false,
                    "internalType": "uint256",
                    "name": "amount",
                    "type": "uint256"
                }
            ],
            "name": "RewardClaimed",
            "type": "event"
        },
        {
            "anonymous": false,
            "inputs": [
                {
                    "indexed": true,
                    "internalType": "address",
                    "name": "user",
                    "type": "address"
                },
                {
                    "indexed": false,
                    "internalType": "uint256",
                    "name": "pid",
                    "type": "uint256"
                },
                {
                    "indexed": false,
                    "internalType": "uint256",
                    "name": "amount",
                    "type": "uint256"
                }
            ],
            "name": "Staked",
            "type": "event"
        },
        {
            "anonymous": false,
            "inputs": [],
            "name": "Unpaused",
            "type": "event"
        },
        {
            "anonymous": false,
            "inputs": [
                {
                    "indexed": true,
                    "internalType": "address",
                    "name": "user",
                    "type": "address"
                },
                {
                    "indexed": false,
                    "internalType": "uint256",
                    "name": "pid",
                    "type": "uint256"
                },
                {
                    "indexed": false,
                    "internalType": "uint256",
                    "name": "amount",
                    "type": "uint256"
                }
            ],
            "name": "Unstaked",
            "type": "event"
        },
        {
            "anonymous": false,
            "inputs": [
                {
                    "indexed": true,
                    "internalType": "address",
                    "name": "upgrader",
                    "type": "address"
                }
            ],
            "name": "UpgraderAuthorized",
            "type": "event"
        },
        {
            "anonymous": false,
            "inputs": [
                {
                    "indexed": true,
                    "internalType": "address",
                    "name": "upgrader",
                    "type": "address"
                }
            ],
            "name": "UpgraderRevoked",
            "type": "event"
        },
        {
            "inputs": [
                {
                    "internalType": "uint256",
                    "name": "_pid",
                    "type": "uint256"
                },
                {
                    "internalType": "address",
                    "name": "_stTokenAddress",
                    "type": "address"
                },
                {
                    "internalType": "uint256",
                    "name": "_poolWeight",
                    "type": "uint256"
                },
                {
                    "internalType": "uint256",
                    "name": "_minDepositAmount",
                    "type": "uint256"
                },
                {
                    "internalType": "uint256",
                    "name": "_unstakeLockedBlocks",
                    "type": "uint256"
                },
                {
                    "internalType": "uint256",
                    "name": "_rewardPerBlock",
                    "type": "uint256"
                }
            ],
            "name": "addPool",
            "outputs": [],
            "stateMutability": "nonpayable",
            "type": "function"
        },
        {
            "inputs": [
                {
                    "internalType": "address",
                    "name": "_upgrader",
                    "type": "address"
                }
            ],
            "name": "authorizeUpgrader",
            "outputs": [],
            "stateMutability": "nonpayable",
            "type": "function"
        },
        {
            "inputs": [
                {
                    "internalType": "address",
                    "name": "",
                    "type": "address"
                }
            ],
            "name": "authorizedUpgraders",
            "outputs": [
                {
                    "internalType": "bool",
                    "name": "",
                    "type": "bool"
                }
            ],
            "stateMutability": "view",
            "type": "function"
        },
        {
            "inputs": [],
            "name": "b2TokenAddress",
            "outputs": [
                {
                    "internalType": "address",
                    "name": "",
                    "type": "address"
                }
            ],
            "stateMutability": "view",
            "type": "function"
        },
        {
            "inputs": [
                {
                    "internalType": "uint256",
                    "name": "_pid",
                    "type": "uint256"
                },
                {
                    "internalType": "address",
                    "name": "_user",
                    "type": "address"
                }
            ],
            "name": "calculateReward",
            "outputs": [
                {
                    "internalType": "uint256",
                    "name": "",
                    "type": "uint256"
                }
            ],
            "stateMutability": "view",
            "type": "function"
        },
        {
            "inputs": [
                {
                    "internalType": "uint256",
                    "name": "_pid",
                    "type": "uint256"
                }
            ],
            "name": "claimReward",
            "outputs": [],
            "stateMutability": "nonpayable",
            "type": "function"
        },
        {
            "inputs": [],
            "name": "owner",
            "outputs": [
                {
                    "internalType": "address",
                    "name": "",
                    "type": "address"
                }
            ],
            "stateMutability": "view",
            "type": "function"
        },
        {
            "inputs": [],
            "name": "pause",
            "outputs": [],
            "stateMutability": "nonpayable",
            "type": "function"
        },
        {
            "inputs": [],
            "name": "paused",
            "outputs": [
                {
                    "internalType": "bool",
                    "name": "",
                    "type": "bool"
                }
            ],
            "stateMutability": "view",
            "type": "function"
        },
        {
            "inputs": [
                {
                    "internalType": "uint256",
                    "name": "",
                    "type": "uint256"
                }
            ],
            "name": "pools",
            "outputs": [
                {
                    "internalType": "address",
                    "name": "stTokenAddress",
                    "type": "address"
                },
                {
                    "internalType": "uint256",
                    "name": "poolWeight",
                    "type": "uint256"
                },
                {
                    "internalType": "uint256",
                    "name": "lastRewardBlock",
                    "type": "uint256"
                },
                {
                    "internalType": "uint256",
                    "name": "accB2PerST",
                    "type": "uint256"
                },
                {
                    "internalType": "uint256",
                    "name": "stTokenAmount",
                    "type": "uint256"
                },
                {
                    "internalType": "uint256",
                    "name": "minDepositAmount",
                    "type": "uint256"
                },
                {
                    "internalType": "uint256",
                    "name": "unstakeLockedBlocks",
                    "type": "uint256"
                },
                {
                    "internalType": "uint256",
                    "name": "rewardPerBlock",
                    "type": "uint256"
                }
            ],
            "stateMutability": "view",
            "type": "function"
        },
        {
            "inputs": [],
            "name": "renounceOwnership",
            "outputs": [],
            "stateMutability": "nonpayable",
            "type": "function"
        },
        {
            "inputs": [
                {
                    "internalType": "address",
                    "name": "_upgrader",
                    "type": "address"
                }
            ],
            "name": "revokeUpgrader",
            "outputs": [],
            "stateMutability": "nonpayable",
            "type": "function"
        },
        {
            "inputs": [
                {
                    "internalType": "uint256",
                    "name": "_pid",
                    "type": "uint256"
                },
                {
                    "internalType": "uint256",
                    "name": "_amount",
                    "type": "uint256"
                }
            ],
            "name": "stake",
            "outputs": [],
            "stateMutability": "nonpayable",
            "type": "function"
        },
        {
            "inputs": [
                {
                    "internalType": "address",
                    "name": "newOwner",
                    "type": "address"
                }
            ],
            "name": "transferOwnership",
            "outputs": [],
            "stateMutability": "nonpayable",
            "type": "function"
        },
        {
            "inputs": [],
            "name": "unpause",
            "outputs": [],
            "stateMutability": "nonpayable",
            "type": "function"
        },
        {
            "inputs": [
                {
                    "internalType": "uint256",
                    "name": "_pid",
                    "type": "uint256"
                },
                {
                    "internalType": "uint256",
                    "name": "_amount",
                    "type": "uint256"
                }
            ],
            "name": "unstake",
            "outputs": [],
            "stateMutability": "nonpayable",
            "type": "function"
        },
        {
            "inputs": [
                {
                    "internalType": "address",
                    "name": "newContract",
                    "type": "address"
                }
            ],
            "name": "upgradeContract",
            "outputs": [],
            "stateMutability": "nonpayable",
            "type": "function"
        },
        {
            "inputs": [
                {
                    "internalType": "address",
                    "name": "",
                    "type": "address"
                },
                {
                    "internalType": "uint256",
                    "name": "",
                    "type": "uint256"
                }
            ],
            "name": "users",
            "outputs": [
                {
                    "internalType": "uint256",
                    "name": "stAmount",
                    "type": "uint256"
                },
                {
                    "internalType": "uint256",
                    "name": "finishedB2",
                    "type": "uint256"
                },
                {
                    "internalType": "uint256",
                    "name": "pendingB2",
                    "type": "uint256"
                }
            ],
            "stateMutability": "view",
            "type": "function"
        }
    ],
    "bytecode": "60806040526004805460ff19169055348015610019575f80fd5b50604051610f85380380610f85833981016040819052610038916100ea565b806001600160a01b03811661006657604051631e4fbdf760e01b81525f600482015260240160405180910390fd5b61006f8161009b565b50600480546001600160a01b0390921661010002610100600160a81b0319909216919091179055610117565b5f80546001600160a01b038381166001600160a01b0319831681178455604051919092169283917f8be0079c531659141344cd1fd0a4f28419497f9722a3daafe3b4186f6b6457e09190a35050565b5f602082840312156100fa575f80fd5b81516001600160a01b0381168114610110575f80fd5b9392505050565b610e61806101245f395ff3fe608060405234801561000f575f80fd5b5060043610610111575f3560e01c80638456cb591161009e578063ac4afa381161006e578063ac4afa3814610270578063ae169a5014610312578063eb2c022314610325578063f2fde38b14610338578063f9646aae1461034b575f80fd5b80638456cb59146102245780638da5cb5b1461022c5780639e2c8a5b1461023c578063a18f07a01461024f575f80fd5b80636a3c1525116100e45780636a3c1525146101a4578063715018a6146101c65780637b0472f0146101ce5780637c853780146101e157806383565451146101f4575f80fd5b80633f4ba83a146101155780634ca171dc1461011f57806354a02f9e146101325780635c975abb14610187575b5f80fd5b61011d61035e565b005b61011d61012d366004610c7d565b61039a565b610167610140366004610c9d565b600260208181525f9384526040808520909152918352912080546001820154919092015483565b604080519384526020840192909252908201526060015b60405180910390f35b6004546101949060ff1681565b604051901515815260200161017e565b6101946101b2366004610c7d565b60036020525f908152604090205460ff1681565b61011d6103ed565b61011d6101dc366004610cc5565b610400565b61011d6101ef366004610c7d565b610596565b60045461020c9061010090046001600160a01b031681565b6040516001600160a01b03909116815260200161017e565b61011d6105e6565b5f546001600160a01b031661020c565b61011d61024a366004610cc5565b610625565b61026261025d366004610ce5565b61078c565b60405190815260200161017e565b6102cd61027e366004610d0f565b600160208190525f9182526040909120805491810154600282015460038301546004840154600585015460068601546007909601546001600160a01b0390971696949593949293919290919088565b604080516001600160a01b0390991689526020890197909752958701949094526060860192909252608085015260a084015260c083015260e08201526101000161017e565b61011d610320366004610d0f565b610845565b61011d610333366004610c7d565b610992565b61011d610346366004610c7d565b6109f3565b61011d610359366004610d26565b610a2d565b610366610b55565b6004805460ff191690556040517fa45f47fdea8a1efdd9029a5691c7f759c32b7c698632b563573e155625d16933905f90a1565b6103a2610b55565b6001600160a01b0381165f81815260036020526040808220805460ff19166001179055517fd4f457f9bb396f9f819dce7506ca19549d73197472ab3a18322071c0203aba099190a250565b6103f5610b55565b6103fe5f610b81565b565b60045460ff161561042c5760405162461bcd60e51b815260040161042390610d70565b60405180910390fd5b5f8281526001602090815260408083203384526002835281842086855290925290912060058201548310156104a35760405162461bcd60e51b815260206004820152601c60248201527f416d6f756e742062656c6f77206d696e696d756d206465706f736974000000006044820152606401610423565b6104ac84610bd0565b81546040516323b872dd60e01b8152336004820152306024820152604481018590526001600160a01b03909116906323b872dd906064016020604051808303815f875af11580156104ff573d5f803e3d5ffd5b505050506040513d601f19601f820116820180604052508101906105239190610d9c565b5082815f015f8282546105369190610dcf565b9250508190555082826004015f8282546105509190610dcf565b9091555050604080518581526020810185905233917f1449c6dd7851abc30abf37f57715f492010519147cc2652fbc38202c18a6ee90910160405180910390a250505050565b61059e610b55565b6001600160a01b0381165f81815260036020526040808220805460ff19169055517f8a761d5dee522b3058dac16bb8cd4c1eb449b03d8e6189eb0e40d46decc949a49190a250565b6105ee610b55565b6004805460ff191660011790556040517f9e87fac88ff661f02d44f95383c817fece4bce600a3dab7a54406878b965e752905f90a1565b60045460ff16156106485760405162461bcd60e51b815260040161042390610d70565b5f8281526001602090815260408083203384526002835281842086855290925290912080548311156106bc5760405162461bcd60e51b815260206004820152601c60248201527f416d6f756e742065786365656473207374616b656420616d6f756e74000000006044820152606401610423565b6106c584610bd0565b5f8260060154436106d69190610dcf565b604080518082019091528581526020808201838152600386018054600181810183555f92835293822094516002909102909401938455905192909101919091558354919250859184919061072b908490610de2565b9250508190555083836004015f8282546107459190610de2565b9091555050604080518681526020810186905233917f7fc4727e062e336010f2c282598ef5f14facb3de68cf8195c2f23e1454b2b74e910160405180910390a25050505050565b5f8281526001602090815260408083206001600160a01b0385168452600280845282852087865290935290832091810154909190439081116107d3575f935050505061083f565b5f8360020154826107e49190610de2565b90505f846004015485600101548660070154846108019190610df5565b61080b9190610df5565b6108159190610e0c565b90505f856004015482865f015461082c9190610df5565b6108369190610e0c565b96505050505050505b92915050565b60045460ff16156108685760405162461bcd60e51b815260040161042390610d70565b335f81815260026020908152604080832085845290915281209161088d90849061078c565b90505f81116108d35760405162461bcd60e51b81526020600482015260126024820152714e6f2072657761726420746f20636c61696d60701b6044820152606401610423565b5f60028301556004805460405163a9059cbb60e01b815233928101929092526024820183905261010090046001600160a01b03169063a9059cbb906044016020604051808303815f875af115801561092d573d5f803e3d5ffd5b505050506040513d601f19601f820116820180604052508101906109519190610d9c565b50604080518481526020810183905233917ff01da32686223933d8a18a391060918c7f11a3648639edd87ae013e2e2731743910160405180910390a2505050565b335f9081526003602052604090205460ff166109f05760405162461bcd60e51b815260206004820152601960248201527f4e6f7420617574686f72697a656420746f2075706772616465000000000000006044820152606401610423565b50565b6109fb610b55565b6001600160a01b038116610a2457604051631e4fbdf760e01b81525f6004820152602401610423565b6109f081610b81565b610a35610b55565b5f868152600160208190526040822080546001600160a01b0319166001600160a01b0389161781559081018690556005810185905560068101849055600781018390556002810154909103610aed57436002820155604080518881526001600160a01b0388166020820152908101869052606081018590526080810184905260a081018390527f3ff6ba61e9c77719adb4a90993171e493ca68a3469805a3cf4e901b3c317bf329060c00160405180910390a1610b4c565b604080518881526001600160a01b0388166020820152908101869052606081018590526080810184905260a081018390527f66be840b97a125c8241daa6e7dcb3b9c653150abd802a17c46d3988f509034439060c00160405180910390a15b50505050505050565b5f546001600160a01b031633146103fe5760405163118cdaa760e01b8152336004820152602401610423565b5f80546001600160a01b038381166001600160a01b0319831681178455604051919092169283917f8be0079c531659141344cd1fd0a4f28419497f9722a3daafe3b4186f6b6457e09190a35050565b5f818152600160205260409020600281015443908111610bef57505050565b5f826002015482610c009190610de2565b600484015490915015610c58575f83600401548460010154856007015484610c289190610df5565b610c329190610df5565b610c3c9190610e0c565b905080846003015f828254610c519190610dcf565b9091555050505b5060029091015550565b80356001600160a01b0381168114610c78575f80fd5b919050565b5f60208284031215610c8d575f80fd5b610c9682610c62565b9392505050565b5f8060408385031215610cae575f80fd5b610cb783610c62565b946020939093013593505050565b5f8060408385031215610cd6575f80fd5b50508035926020909101359150565b5f8060408385031215610cf6575f80fd5b82359150610d0660208401610c62565b90509250929050565b5f60208284031215610d1f575f80fd5b5035919050565b5f805f805f8060c08789031215610d3b575f80fd5b86359550610d4b60208801610c62565b95989597505050506040840135936060810135936080820135935060a0909101359150565b60208082526012908201527110dbdb9d1c9858dd081a5cc81c185d5cd95960721b604082015260600190565b5f60208284031215610dac575f80fd5b81518015158114610c96575f80fd5b634e487b7160e01b5f52601160045260245ffd5b8082018082111561083f5761083f610dbb565b8181038181111561083f5761083f610dbb565b808202811582820484141761083f5761083f610dbb565b5f82610e2657634e487b7160e01b5f52601260045260245ffd5b50049056fea2646970667358221220494ec172404f9f677f42f32960a9143c50b0452091c5d5b13054639ac16efb8464736f6c63430008180033",
    "sourcePath": "d:/web3/B2Stake/src/B2Stake.sol",
    "compiler": {
        "name": "solc",
        "version": "0.8.24+commit.e11b9ed9"
    },
    "functionHashes": {
        "addPool(uint256,address,uint256,uint256,uint256,uint256)": "f9646aae",
        "authorizeUpgrader(address)": "4ca171dc",
        "authorizedUpgraders(address)": "6a3c1525",
        "b2TokenAddress()": "83565451",
        "calculateReward(uint256,address)": "a18f07a0",
        "claimReward(uint256)": "ae169a50",
        "owner()": "8da5cb5b",
        "pause()": "8456cb59",
        "paused()": "5c975abb",
        "pools(uint256)": "ac4afa38",
        "renounceOwnership()": "715018a6",
        "revokeUpgrader(address)": "7c853780",
        "stake(uint256,uint256)": "7b0472f0",
        "transferOwnership(address)": "f2fde38b",
        "unpause()": "3f4ba83a",
        "unstake(uint256,uint256)": "9e2c8a5b",
        "upgradeContract(address)": "eb2c0223",
        "users(address,uint256)": "54a02f9e"
    },
    "gasEstimates": {
        "creation": {
            "codeDepositCost": "736200",
            "executionCost": "infinite",
            "totalCost": "infinite"
        },
        "external": {
            "addPool(uint256,address,uint256,uint256,uint256,uint256)": "142191",
            "authorizeUpgrader(address)": "27961",
            "authorizedUpgraders(address)": "2551",
            "b2TokenAddress()": "2458",
            "calculateReward(uint256,address)": "infinite",
            "claimReward(uint256)": "infinite",
            "owner()": "2374",
            "pause()": "27320",
            "paused()": "2399",
            "pools(uint256)": "17451",
            "renounceOwnership()": "infinite",
            "revokeUpgrader(address)": "27998",
            "stake(uint256,uint256)": "infinite",
            "transferOwnership(address)": "28417",
            "unpause()": "27315",
            "unstake(uint256,uint256)": "infinite",
            "upgradeContract(address)": "2663",
            "users(address,uint256)": "6932"
        },
        "internal": {
            "_updatePool(uint256)": "infinite"
        }
    }
}