{
    "contractName": "B2Stake",
    "abi": [
        {
            "inputs": [],
            "name": "AccessControlBadConfirmation",
            "type": "error"
        },
        {
            "inputs": [
                {
                    "internalType": "address",
                    "name": "account",
                    "type": "address"
                },
                {
                    "internalType": "bytes32",
                    "name": "neededRole",
                    "type": "bytes32"
                }
            ],
            "name": "AccessControlUnauthorizedAccount",
            "type": "error"
        },
        {
            "inputs": [
                {
                    "internalType": "address",
                    "name": "target",
                    "type": "address"
                }
            ],
            "name": "AddressEmptyCode",
            "type": "error"
        },
        {
            "inputs": [
                {
                    "internalType": "address",
                    "name": "implementation",
                    "type": "address"
                }
            ],
            "name": "ERC1967InvalidImplementation",
            "type": "error"
        },
        {
            "inputs": [],
            "name": "ERC1967NonPayable",
            "type": "error"
        },
        {
            "inputs": [],
            "name": "EnforcedPause",
            "type": "error"
        },
        {
            "inputs": [],
            "name": "ExpectedPause",
            "type": "error"
        },
        {
            "inputs": [],
            "name": "FailedInnerCall",
            "type": "error"
        },
        {
            "inputs": [],
            "name": "InvalidInitialization",
            "type": "error"
        },
        {
            "inputs": [],
            "name": "NotInitializing",
            "type": "error"
        },
        {
            "inputs": [],
            "name": "UUPSUnauthorizedCallContext",
            "type": "error"
        },
        {
            "inputs": [
                {
                    "internalType": "bytes32",
                    "name": "slot",
                    "type": "bytes32"
                }
            ],
            "name": "UUPSUnsupportedProxiableUUID",
            "type": "error"
        },
        {
            "anonymous": false,
            "inputs": [
                {
                    "indexed": false,
                    "internalType": "uint64",
                    "name": "version",
                    "type": "uint64"
                }
            ],
            "name": "Initialized",
            "type": "event"
        },
        {
            "anonymous": false,
            "inputs": [
                {
                    "indexed": false,
                    "internalType": "address",
                    "name": "account",
                    "type": "address"
                }
            ],
            "name": "Paused",
            "type": "event"
        },
        {
            "anonymous": false,
            "inputs": [],
            "name": "Paused",
            "type": "event"
        },
        {
            "anonymous": false,
            "inputs": [
                {
                    "indexed": false,
                    "internalType": "uint256",
                    "name": "pid",
                    "type": "uint256"
                },
                {
                    "indexed": false,
                    "internalType": "address",
                    "name": "stTokenAddress",
                    "type": "address"
                },
                {
                    "indexed": false,
                    "internalType": "uint256",
                    "name": "poolWeight",
                    "type": "uint256"
                },
                {
                    "indexed": false,
                    "internalType": "uint256",
                    "name": "minDepositAmount",
                    "type": "uint256"
                },
                {
                    "indexed": false,
                    "internalType": "uint256",
                    "name": "unstakeLockedBlocks",
                    "type": "uint256"
                },
                {
                    "indexed": false,
                    "internalType": "uint256",
                    "name": "rewardPerBlock",
                    "type": "uint256"
                }
            ],
            "name": "PoolAdded",
            "type": "event"
        },
        {
            "anonymous": false,
            "inputs": [
                {
                    "indexed": false,
                    "internalType": "uint256",
                    "name": "pid",
                    "type": "uint256"
                },
                {
                    "indexed": false,
                    "internalType": "address",
                    "name": "stTokenAddress",
                    "type": "address"
                },
                {
                    "indexed": false,
                    "internalType": "uint256",
                    "name": "poolWeight",
                    "type": "uint256"
                },
                {
                    "indexed": false,
                    "internalType": "uint256",
                    "name": "minDepositAmount",
                    "type": "uint256"
                },
                {
                    "indexed": false,
                    "internalType": "uint256",
                    "name": "unstakeLockedBlocks",
                    "type": "uint256"
                },
                {
                    "indexed": false,
                    "internalType": "uint256",
                    "name": "rewardPerBlock",
                    "type": "uint256"
                }
            ],
            "name": "PoolUpdated",
            "type": "event"
        },
        {
            "anonymous": false,
            "inputs": [
                {
                    "indexed": true,
                    "internalType": "address",
                    "name": "user",
                    "type": "address"
                },
                {
                    "indexed": false,
                    "internalType": "uint256",
                    "name": "pid",
                    "type": "uint256"
                },
                {
                    "indexed": false,
                    "internalType": "uint256",
                    "name": "amount",
                    "type": "uint256"
                }
            ],
            "name": "RewardClaimed",
            "type": "event"
        },
        {
            "anonymous": false,
            "inputs": [
                {
                    "indexed": true,
                    "internalType": "bytes32",
                    "name": "role",
                    "type": "bytes32"
                },
                {
                    "indexed": true,
                    "internalType": "bytes32",
                    "name": "previousAdminRole",
                    "type": "bytes32"
                },
                {
                    "indexed": true,
                    "internalType": "bytes32",
                    "name": "newAdminRole",
                    "type": "bytes32"
                }
            ],
            "name": "RoleAdminChanged",
            "type": "event"
        },
        {
            "anonymous": false,
            "inputs": [
                {
                    "indexed": true,
                    "internalType": "bytes32",
                    "name": "role",
                    "type": "bytes32"
                },
                {
                    "indexed": true,
                    "internalType": "address",
                    "name": "account",
                    "type": "address"
                },
                {
                    "indexed": true,
                    "internalType": "address",
                    "name": "sender",
                    "type": "address"
                }
            ],
            "name": "RoleGranted",
            "type": "event"
        },
        {
            "anonymous": false,
            "inputs": [
                {
                    "indexed": true,
                    "internalType": "bytes32",
                    "name": "role",
                    "type": "bytes32"
                },
                {
                    "indexed": true,
                    "internalType": "address",
                    "name": "account",
                    "type": "address"
                },
                {
                    "indexed": true,
                    "internalType": "address",
                    "name": "sender",
                    "type": "address"
                }
            ],
            "name": "RoleRevoked",
            "type": "event"
        },
        {
            "anonymous": false,
            "inputs": [
                {
                    "indexed": true,
                    "internalType": "contract IERC20",
                    "name": "B2",
                    "type": "address"
                }
            ],
            "name": "SetB2",
            "type": "event"
        },
        {
            "anonymous": false,
            "inputs": [
                {
                    "indexed": false,
                    "internalType": "uint256",
                    "name": "b2PerBlock",
                    "type": "uint256"
                }
            ],
            "name": "SetB2PerBlock",
            "type": "event"
        },
        {
            "anonymous": false,
            "inputs": [
                {
                    "indexed": false,
                    "internalType": "uint256",
                    "name": "endBlock",
                    "type": "uint256"
                }
            ],
            "name": "SetEndBlock",
            "type": "event"
        },
        {
            "anonymous": false,
            "inputs": [
                {
                    "indexed": false,
                    "internalType": "uint256",
                    "name": "startBlock",
                    "type": "uint256"
                }
            ],
            "name": "SetStartBlock",
            "type": "event"
        },
        {
            "anonymous": false,
            "inputs": [
                {
                    "indexed": true,
                    "internalType": "address",
                    "name": "user",
                    "type": "address"
                },
                {
                    "indexed": false,
                    "internalType": "uint256",
                    "name": "pid",
                    "type": "uint256"
                },
                {
                    "indexed": false,
                    "internalType": "uint256",
                    "name": "amount",
                    "type": "uint256"
                }
            ],
            "name": "Staked",
            "type": "event"
        },
        {
            "anonymous": false,
            "inputs": [
                {
                    "indexed": false,
                    "internalType": "address",
                    "name": "account",
                    "type": "address"
                }
            ],
            "name": "Unpaused",
            "type": "event"
        },
        {
            "anonymous": false,
            "inputs": [],
            "name": "Unpaused",
            "type": "event"
        },
        {
            "anonymous": false,
            "inputs": [
                {
                    "indexed": true,
                    "internalType": "address",
                    "name": "user",
                    "type": "address"
                },
                {
                    "indexed": false,
                    "internalType": "uint256",
                    "name": "pid",
                    "type": "uint256"
                },
                {
                    "indexed": false,
                    "internalType": "uint256",
                    "name": "amount",
                    "type": "uint256"
                }
            ],
            "name": "Unstaked",
            "type": "event"
        },
        {
            "anonymous": false,
            "inputs": [
                {
                    "indexed": true,
                    "internalType": "address",
                    "name": "implementation",
                    "type": "address"
                }
            ],
            "name": "Upgraded",
            "type": "event"
        },
        {
            "anonymous": false,
            "inputs": [
                {
                    "indexed": true,
                    "internalType": "address",
                    "name": "upgrader",
                    "type": "address"
                }
            ],
            "name": "UpgraderAuthorized",
            "type": "event"
        },
        {
            "anonymous": false,
            "inputs": [
                {
                    "indexed": true,
                    "internalType": "address",
                    "name": "upgrader",
                    "type": "address"
                }
            ],
            "name": "UpgraderRevoked",
            "type": "event"
        },
        {
            "inputs": [],
            "name": "ADMIN_ROLE",
            "outputs": [
                {
                    "internalType": "bytes32",
                    "name": "",
                    "type": "bytes32"
                }
            ],
            "stateMutability": "view",
            "type": "function"
        },
        {
            "inputs": [],
            "name": "B2",
            "outputs": [
                {
                    "internalType": "contract IERC20",
                    "name": "",
                    "type": "address"
                }
            ],
            "stateMutability": "view",
            "type": "function"
        },
        {
            "inputs": [],
            "name": "BTC_PID",
            "outputs": [
                {
                    "internalType": "uint256",
                    "name": "",
                    "type": "uint256"
                }
            ],
            "stateMutability": "view",
            "type": "function"
        },
        {
            "inputs": [],
            "name": "DEFAULT_ADMIN_ROLE",
            "outputs": [
                {
                    "internalType": "bytes32",
                    "name": "",
                    "type": "bytes32"
                }
            ],
            "stateMutability": "view",
            "type": "function"
        },
        {
            "inputs": [],
            "name": "UPGRADE_INTERFACE_VERSION",
            "outputs": [
                {
                    "internalType": "string",
                    "name": "",
                    "type": "string"
                }
            ],
            "stateMutability": "view",
            "type": "function"
        },
        {
            "inputs": [],
            "name": "UPGRADE_ROLE",
            "outputs": [
                {
                    "internalType": "bytes32",
                    "name": "",
                    "type": "bytes32"
                }
            ],
            "stateMutability": "view",
            "type": "function"
        },
        {
            "inputs": [
                {
                    "internalType": "uint256",
                    "name": "_pid",
                    "type": "uint256"
                },
                {
                    "internalType": "address",
                    "name": "_stTokenAddress",
                    "type": "address"
                },
                {
                    "internalType": "uint256",
                    "name": "_poolWeight",
                    "type": "uint256"
                },
                {
                    "internalType": "uint256",
                    "name": "_minDepositAmount",
                    "type": "uint256"
                },
                {
                    "internalType": "uint256",
                    "name": "_unstakeLockedBlocks",
                    "type": "uint256"
                },
                {
                    "internalType": "uint256",
                    "name": "_rewardPerBlock",
                    "type": "uint256"
                }
            ],
            "name": "addPool",
            "outputs": [],
            "stateMutability": "nonpayable",
            "type": "function"
        },
        {
            "inputs": [
                {
                    "internalType": "address",
                    "name": "_upgrader",
                    "type": "address"
                }
            ],
            "name": "authorizeUpgrader",
            "outputs": [],
            "stateMutability": "nonpayable",
            "type": "function"
        },
        {
            "inputs": [
                {
                    "internalType": "address",
                    "name": "",
                    "type": "address"
                }
            ],
            "name": "authorizedUpgraders",
            "outputs": [
                {
                    "internalType": "bool",
                    "name": "",
                    "type": "bool"
                }
            ],
            "stateMutability": "view",
            "type": "function"
        },
        {
            "inputs": [],
            "name": "b2PerBlock",
            "outputs": [
                {
                    "internalType": "uint256",
                    "name": "",
                    "type": "uint256"
                }
            ],
            "stateMutability": "view",
            "type": "function"
        },
        {
            "inputs": [
                {
                    "internalType": "uint256",
                    "name": "_pid",
                    "type": "uint256"
                },
                {
                    "internalType": "address",
                    "name": "_user",
                    "type": "address"
                }
            ],
            "name": "calculateReward",
            "outputs": [
                {
                    "internalType": "uint256",
                    "name": "",
                    "type": "uint256"
                }
            ],
            "stateMutability": "view",
            "type": "function"
        },
        {
            "inputs": [],
            "name": "claimPaused",
            "outputs": [
                {
                    "internalType": "bool",
                    "name": "",
                    "type": "bool"
                }
            ],
            "stateMutability": "view",
            "type": "function"
        },
        {
            "inputs": [
                {
                    "internalType": "uint256",
                    "name": "_pid",
                    "type": "uint256"
                }
            ],
            "name": "claimReward",
            "outputs": [],
            "stateMutability": "nonpayable",
            "type": "function"
        },
        {
            "inputs": [],
            "name": "endBlock",
            "outputs": [
                {
                    "internalType": "uint256",
                    "name": "",
                    "type": "uint256"
                }
            ],
            "stateMutability": "view",
            "type": "function"
        },
        {
            "inputs": [
                {
                    "internalType": "bytes32",
                    "name": "role",
                    "type": "bytes32"
                }
            ],
            "name": "getRoleAdmin",
            "outputs": [
                {
                    "internalType": "bytes32",
                    "name": "",
                    "type": "bytes32"
                }
            ],
            "stateMutability": "view",
            "type": "function"
        },
        {
            "inputs": [
                {
                    "internalType": "bytes32",
                    "name": "role",
                    "type": "bytes32"
                },
                {
                    "internalType": "address",
                    "name": "account",
                    "type": "address"
                }
            ],
            "name": "grantRole",
            "outputs": [],
            "stateMutability": "nonpayable",
            "type": "function"
        },
        {
            "inputs": [
                {
                    "internalType": "bytes32",
                    "name": "role",
                    "type": "bytes32"
                },
                {
                    "internalType": "address",
                    "name": "account",
                    "type": "address"
                }
            ],
            "name": "hasRole",
            "outputs": [
                {
                    "internalType": "bool",
                    "name": "",
                    "type": "bool"
                }
            ],
            "stateMutability": "view",
            "type": "function"
        },
        {
            "inputs": [
                {
                    "internalType": "contract IERC20",
                    "name": "_B2",
                    "type": "address"
                },
                {
                    "internalType": "uint256",
                    "name": "_startBlock",
                    "type": "uint256"
                },
                {
                    "internalType": "uint256",
                    "name": "_endBlock",
                    "type": "uint256"
                },
                {
                    "internalType": "uint256",
                    "name": "_b2PerBlock",
                    "type": "uint256"
                }
            ],
            "name": "initialize",
            "outputs": [],
            "stateMutability": "nonpayable",
            "type": "function"
        },
        {
            "inputs": [],
            "name": "pause",
            "outputs": [],
            "stateMutability": "nonpayable",
            "type": "function"
        },
        {
            "inputs": [],
            "name": "paused",
            "outputs": [
                {
                    "internalType": "bool",
                    "name": "",
                    "type": "bool"
                }
            ],
            "stateMutability": "view",
            "type": "function"
        },
        {
            "inputs": [
                {
                    "internalType": "uint256",
                    "name": "",
                    "type": "uint256"
                }
            ],
            "name": "pools",
            "outputs": [
                {
                    "internalType": "address",
                    "name": "stTokenAddress",
                    "type": "address"
                },
                {
                    "internalType": "uint256",
                    "name": "poolWeight",
                    "type": "uint256"
                },
                {
                    "internalType": "uint256",
                    "name": "lastRewardBlock",
                    "type": "uint256"
                },
                {
                    "internalType": "uint256",
                    "name": "accB2PerST",
                    "type": "uint256"
                },
                {
                    "internalType": "uint256",
                    "name": "stTokenAmount",
                    "type": "uint256"
                },
                {
                    "internalType": "uint256",
                    "name": "minDepositAmount",
                    "type": "uint256"
                },
                {
                    "internalType": "uint256",
                    "name": "unstakeLockedBlocks",
                    "type": "uint256"
                }
            ],
            "stateMutability": "view",
            "type": "function"
        },
        {
            "inputs": [],
            "name": "proxiableUUID",
            "outputs": [
                {
                    "internalType": "bytes32",
                    "name": "",
                    "type": "bytes32"
                }
            ],
            "stateMutability": "view",
            "type": "function"
        },
        {
            "inputs": [
                {
                    "internalType": "bytes32",
                    "name": "role",
                    "type": "bytes32"
                },
                {
                    "internalType": "address",
                    "name": "callerConfirmation",
                    "type": "address"
                }
            ],
            "name": "renounceRole",
            "outputs": [],
            "stateMutability": "nonpayable",
            "type": "function"
        },
        {
            "inputs": [
                {
                    "internalType": "bytes32",
                    "name": "role",
                    "type": "bytes32"
                },
                {
                    "internalType": "address",
                    "name": "account",
                    "type": "address"
                }
            ],
            "name": "revokeRole",
            "outputs": [],
            "stateMutability": "nonpayable",
            "type": "function"
        },
        {
            "inputs": [
                {
                    "internalType": "contract IERC20",
                    "name": "_B2",
                    "type": "address"
                }
            ],
            "name": "setB2",
            "outputs": [],
            "stateMutability": "nonpayable",
            "type": "function"
        },
        {
            "inputs": [
                {
                    "internalType": "uint256",
                    "name": "_b2PerBlock",
                    "type": "uint256"
                }
            ],
            "name": "setB2PerBlock",
            "outputs": [],
            "stateMutability": "nonpayable",
            "type": "function"
        },
        {
            "inputs": [
                {
                    "internalType": "uint256",
                    "name": "_endBlock",
                    "type": "uint256"
                }
            ],
            "name": "setEndBlock",
            "outputs": [],
            "stateMutability": "nonpayable",
            "type": "function"
        },
        {
            "inputs": [
                {
                    "internalType": "uint256",
                    "name": "_startBlock",
                    "type": "uint256"
                }
            ],
            "name": "setStartBlock",
            "outputs": [],
            "stateMutability": "nonpayable",
            "type": "function"
        },
        {
            "inputs": [
                {
                    "internalType": "uint256",
                    "name": "_pid",
                    "type": "uint256"
                },
                {
                    "internalType": "uint256",
                    "name": "_amount",
                    "type": "uint256"
                }
            ],
            "name": "stake",
            "outputs": [],
            "stateMutability": "nonpayable",
            "type": "function"
        },
        {
            "inputs": [],
            "name": "startBlock",
            "outputs": [
                {
                    "internalType": "uint256",
                    "name": "",
                    "type": "uint256"
                }
            ],
            "stateMutability": "view",
            "type": "function"
        },
        {
            "inputs": [
                {
                    "internalType": "bytes4",
                    "name": "interfaceId",
                    "type": "bytes4"
                }
            ],
            "name": "supportsInterface",
            "outputs": [
                {
                    "internalType": "bool",
                    "name": "",
                    "type": "bool"
                }
            ],
            "stateMutability": "view",
            "type": "function"
        },
        {
            "inputs": [],
            "name": "unpause",
            "outputs": [],
            "stateMutability": "nonpayable",
            "type": "function"
        },
        {
            "inputs": [
                {
                    "internalType": "uint256",
                    "name": "_pid",
                    "type": "uint256"
                },
                {
                    "internalType": "uint256",
                    "name": "_amount",
                    "type": "uint256"
                }
            ],
            "name": "unstake",
            "outputs": [],
            "stateMutability": "nonpayable",
            "type": "function"
        },
        {
            "inputs": [
                {
                    "internalType": "address",
                    "name": "newImplementation",
                    "type": "address"
                },
                {
                    "internalType": "bytes",
                    "name": "data",
                    "type": "bytes"
                }
            ],
            "name": "upgradeToAndCall",
            "outputs": [],
            "stateMutability": "payable",
            "type": "function"
        },
        {
            "inputs": [
                {
                    "internalType": "address",
                    "name": "",
                    "type": "address"
                },
                {
                    "internalType": "uint256",
                    "name": "",
                    "type": "uint256"
                }
            ],
            "name": "users",
            "outputs": [
                {
                    "internalType": "uint256",
                    "name": "stAmount",
                    "type": "uint256"
                },
                {
                    "internalType": "uint256",
                    "name": "finishedB2",
                    "type": "uint256"
                },
                {
                    "internalType": "uint256",
                    "name": "pendingB2",
                    "type": "uint256"
                }
            ],
            "stateMutability": "view",
            "type": "function"
        }
    ],
    "bytecode": "60a060405230608052348015610013575f80fd5b50608051611d1f61003a5f395f81816114690152818161149201526115f30152611d1f5ff3fe6080604052600436106101fc575f3560e01c80637b0472f011610113578063ae169a501161009d578063dd57a76e1161006d578063dd57a76e14610680578063ee19d698146104e8578063f0c1fd44146106bc578063f35e4a6e146106db578063f9646aae146106fa575f80fd5b8063ae169a50146105f0578063b908afa81461060f578063c713aa9414610642578063d547741f14610661575f80fd5b8063a18f07a0116100e3578063a18f07a0146104c9578063a217fddf146104e8578063ab5e124a146104fb578063ac4afa3814610514578063ad3cb1cc146105b3575f80fd5b80637b0472f0146104585780638456cb591461047757806391d148541461048b5780639e2c8a5b146104aa575f80fd5b806348cd4cb11161019457806352d1902d1161016457806352d1902d1461036457806354a02f9e146103785780635c975abb146103d45780636a3c15251461040a57806375b238fc14610438575f80fd5b806348cd4cb1146102fe5780634ca171dc146103135780634ec81af1146103325780634f1ef28614610351575f80fd5b806328d18b13116101cf57806328d18b13146102975780632f2ff15d146102ac57806336568abe146102cb5780633f4ba83a146102ea575f80fd5b806301ffc9a714610200578063083c6323146102345780630a50f40314610257578063248a9ca314610278575b5f80fd5b34801561020b575f80fd5b5061021f61021a3660046118ef565b610719565b60405190151581526020015b60405180910390f35b34801561023f575f80fd5b5061024960045481565b60405190815260200161022b565b348015610262575f80fd5b50610276610271366004611916565b61074f565b005b348015610283575f80fd5b50610249610292366004611916565b6107eb565b3480156102a2575f80fd5b5061024960055481565b3480156102b7575f80fd5b506102766102c6366004611941565b61080b565b3480156102d6575f80fd5b506102766102e5366004611941565b61082d565b3480156102f5575f80fd5b50610276610865565b348015610309575f80fd5b5061024960035481565b34801561031e575f80fd5b5061027661032d36600461196f565b6108b1565b34801561033d575f80fd5b5061027661034c36600461198a565b610914565b61027661035f3660046119d6565b610ae2565b34801561036f575f80fd5b50610249610b01565b348015610383575f80fd5b506103b9610392366004611a94565b600160208181525f9384526040808520909152918352912080549181015460029091015483565b6040805193845260208401929092529082015260600161022b565b3480156103df575f80fd5b507fcd5ed15c6e187e77e9aee88184c21f4f2182ab5827cb3b7e07fbedcd63f033005460ff1661021f565b348015610415575f80fd5b5061021f61042436600461196f565b60026020525f908152604090205460ff1681565b348015610443575f80fd5b506102495f80516020611c8a83398151915281565b348015610463575f80fd5b50610276610472366004611abe565b610b1c565b348015610482575f80fd5b50610276610c8c565b348015610496575f80fd5b5061021f6104a5366004611941565b610cdb565b3480156104b5575f80fd5b506102766104c4366004611abe565b610d11565b3480156104d4575f80fd5b506102496104e3366004611941565b610ec4565b3480156104f3575f80fd5b506102495f81565b348015610506575f80fd5b5060065461021f9060ff1681565b34801561051f575f80fd5b5061057461052e366004611916565b5f6020819052908152604090208054600182015460028301546003840154600485015460058601546006909601546001600160a01b039095169593949293919290919087565b604080516001600160a01b0390981688526020880196909652948601939093526060850191909152608084015260a083015260c082015260e00161022b565b3480156105be575f80fd5b506105e3604051806040016040528060058152602001640352e302e360dc1b81525081565b60405161022b9190611b00565b3480156105fb575f80fd5b5061027661060a366004611916565b610f4b565b34801561061a575f80fd5b506102497fcab03bc4dbcc648cd59d6bbe9f848d1e9092f914016aa290ee92e18700d1e6f981565b34801561064d575f80fd5b5061027661065c366004611916565b611096565b34801561066c575f80fd5b5061027661067b366004611941565b611104565b34801561068b575f80fd5b506006546106a49061010090046001600160a01b031681565b6040516001600160a01b03909116815260200161022b565b3480156106c7575f80fd5b506102766106d636600461196f565b611120565b3480156106e6575f80fd5b506102766106f5366004611916565b61118e565b348015610705575f80fd5b50610276610714366004611b32565b6111fc565b5f6001600160e01b03198216637965db0b60e01b148061074957506301ffc9a760e01b6001600160e01b03198316145b92915050565b5f80516020611c8a8339815191526107668161132d565b5f82116107ae5760405162461bcd60e51b815260206004820152601160248201527034b73b30b634b2103830b930b6b2ba32b960791b60448201526064015b60405180910390fd5b60058290556040518281527f3dff801ad9b83a62654f4fa4a16b58beffeb28b7801f6cde6b2b155b4b0ca833906020015b60405180910390a15050565b5f9081525f80516020611cca833981519152602052604090206001015490565b610814826107eb565b61081d8161132d565b610827838361133a565b50505050565b6001600160a01b03811633146108565760405163334bd91960e11b815260040160405180910390fd5b61086082826113db565b505050565b5f80516020611c8a83398151915261087c8161132d565b6006805460ff191690556040517fa45f47fdea8a1efdd9029a5691c7f759c32b7c698632b563573e155625d16933905f90a150565b5f80516020611c8a8339815191526108c88161132d565b6001600160a01b0382165f81815260026020526040808220805460ff19166001179055517fd4f457f9bb396f9f819dce7506ca19549d73197472ab3a18322071c0203aba099190a25050565b7ff0c57e16840df040f15088dc2f81fe391c3923bec73e23a9662efc9c229c6a008054600160401b810460ff16159067ffffffffffffffff165f811580156109595750825b90505f8267ffffffffffffffff1660011480156109755750303b155b905081158015610983575080155b156109a15760405163f92ee8a960e01b815260040160405180910390fd5b845467ffffffffffffffff1916600117855583156109cb57845460ff60401b1916600160401b1785555b8688111580156109da57505f86115b610a1b5760405162461bcd60e51b8152602060048201526012602482015271696e76616c696420706172616d657465727360701b60448201526064016107a5565b610a23611454565b610a2b611454565b610a355f3361133a565b50610a607fcab03bc4dbcc648cd59d6bbe9f848d1e9092f914016aa290ee92e18700d1e6f93361133a565b50610a785f80516020611c8a8339815191523361133a565b50610a8289611120565b6003889055600487905560058690558315610ad757845460ff60401b19168555604051600181527fc7f505b2f371ae2175ee4913f4499e1f2633a7b5936321eed1cdaeb6115181d29060200160405180910390a15b505050505050505050565b610aea61145e565b610af382611502565b610afd828261152c565b5050565b5f610b0a6115e8565b505f80516020611caa83398151915290565b610b24611631565b5f82815260208181526040808320338452600183528184208685529092529091206005820154831015610b995760405162461bcd60e51b815260206004820152601c60248201527f416d6f756e742062656c6f77206d696e696d756d206465706f7369740000000060448201526064016107a5565b610ba284611674565b81546040516323b872dd60e01b8152336004820152306024820152604481018590526001600160a01b03909116906323b872dd906064016020604051808303815f875af1158015610bf5573d5f803e3d5ffd5b505050506040513d601f19601f82011682018060405250810190610c199190611b7e565b5082815f015f828254610c2c9190611bb1565b9250508190555082826004015f828254610c469190611bb1565b9091555050604080518581526020810185905233917f1449c6dd7851abc30abf37f57715f492010519147cc2652fbc38202c18a6ee90910160405180910390a250505050565b5f80516020611c8a833981519152610ca38161132d565b6006805460ff191660011790556040517f9e87fac88ff661f02d44f95383c817fece4bce600a3dab7a54406878b965e752905f90a150565b5f9182525f80516020611cca833981519152602090815260408084206001600160a01b0393909316845291905290205460ff1690565b610d19611631565b5f82815260208181526040808320338452600183528184208685529092529091208054831115610d8b5760405162461bcd60e51b815260206004820152601c60248201527f416d6f756e742065786365656473207374616b656420616d6f756e740000000060448201526064016107a5565b610d9484611674565b5f826006015443610da59190611bb1565b6040805180820182528681526020808201848152600387018054600180820183555f9283529390912093516002909102909301928355519101558454905163a9059cbb60e01b8152336004820152602481018790529192506001600160a01b03169063a9059cbb906044016020604051808303815f875af1158015610e2c573d5f803e3d5ffd5b505050506040513d601f19601f82011682018060405250810190610e509190611b7e565b5083825f015f828254610e639190611bc4565b9250508190555083836004015f828254610e7d9190611bc4565b9091555050604080518681526020810186905233917f7fc4727e062e336010f2c282598ef5f14facb3de68cf8195c2f23e1454b2b74e910160405180910390a25050505050565b5f828152602081815260408083206001600160a01b0385168452600183528184208685529092528220600282015443908111610f05575f9350505050610749565b5f670de0b6b3a76400008460030154845f0154610f229190611bd7565b610f2c9190611bee565b90505f836001015482610f3f9190611bc4565b98975050505050505050565b610f53611631565b335f818152600160209081526040808320858452909152812091610f78908490610ec4565b90505f8111610fbe5760405162461bcd60e51b81526020600482015260126024820152714e6f2072657761726420746f20636c61696d60701b60448201526064016107a5565b5f826002018190555080826001015f828254610fda9190611bb1565b909155505060065460405163a9059cbb60e01b8152336004820152602481018390526101009091046001600160a01b03169063a9059cbb906044016020604051808303815f875af1158015611031573d5f803e3d5ffd5b505050506040513d601f19601f820116820180604052508101906110559190611b7e565b50604080518481526020810183905233917ff01da32686223933d8a18a391060918c7f11a3648639edd87ae013e2e2731743910160405180910390a2505050565b5f80516020611c8a8339815191526110ad8161132d565b8160035411156110cf5760405162461bcd60e51b81526004016107a590611c0d565b60048290556040518281527f1132c5baccb51da3d049fabc819697dc845fa224ad59d9b555507d6446b40850906020016107df565b61110d826107eb565b6111168161132d565b61082783836113db565b5f80516020611c8a8339815191526111378161132d565b60068054610100600160a81b0319166101006001600160a01b0385811682029290921792839055604051920416907f43a08088ea699b57145d84833cb89580dd3a00159e7d17452b08de6532da1ac3905f90a25050565b5f80516020611c8a8339815191526111a58161132d565b6004548211156111c75760405162461bcd60e51b81526004016107a590611c0d565b60038290556040518281527f63b90b79f11a0f132bcb2c4a4ddd44abda45c1308a83b2919318df7f5f8b7be4906020016107df565b5f86815260208190526040812080546001600160a01b0319166001600160a01b03881617815560018101869055600581018590556006810184905560028101549091036112c5575f600354431161125557600354611257565b435b60028301819055604080518a81526001600160a01b038a166020820152908101889052606081018790526080810186905260a081018590529091507f3ff6ba61e9c77719adb4a90993171e493ca68a3469805a3cf4e901b3c317bf329060c00160405180910390a150611324565b604080518881526001600160a01b0388166020820152908101869052606081018590526080810184905260a081018390527f66be840b97a125c8241daa6e7dcb3b9c653150abd802a17c46d3988f509034439060c00160405180910390a15b50505050505050565b611337813361169c565b50565b5f5f80516020611cca8339815191526113538484610cdb565b6113d2575f848152602082815260408083206001600160a01b03871684529091529020805460ff191660011790556113883390565b6001600160a01b0316836001600160a01b0316857f2f8788117e7eff1d82e926ec794901d17c78024a50270940304540a733656f0d60405160405180910390a46001915050610749565b5f915050610749565b5f5f80516020611cca8339815191526113f48484610cdb565b156113d2575f848152602082815260408083206001600160a01b0387168085529252808320805460ff1916905551339287917ff6391f5c32d9c69d2a47ea670b442974b53935d1edc7fd64eb21e047a839171b9190a46001915050610749565b61145c6116d5565b565b306001600160a01b037f00000000000000000000000000000000000000000000000000000000000000001614806114e457507f00000000000000000000000000000000000000000000000000000000000000006001600160a01b03166114d85f80516020611caa833981519152546001600160a01b031690565b6001600160a01b031614155b1561145c5760405163703e46dd60e11b815260040160405180910390fd5b7fcab03bc4dbcc648cd59d6bbe9f848d1e9092f914016aa290ee92e18700d1e6f9610afd8161132d565b816001600160a01b03166352d1902d6040518163ffffffff1660e01b8152600401602060405180830381865afa925050508015611586575060408051601f3d908101601f1916820190925261158391810190611c57565b60015b6115ae57604051634c9c8ce360e01b81526001600160a01b03831660048201526024016107a5565b5f80516020611caa83398151915281146115de57604051632a87526960e21b8152600481018290526024016107a5565b610860838361171e565b306001600160a01b037f0000000000000000000000000000000000000000000000000000000000000000161461145c5760405163703e46dd60e11b815260040160405180910390fd5b7fcd5ed15c6e187e77e9aee88184c21f4f2182ab5827cb3b7e07fbedcd63f033005460ff161561145c5760405163d93c066560e01b815260040160405180910390fd5b5f81815260208190526040902060028101544390811161169357505050565b60029091015550565b6116a68282610cdb565b610afd5760405163e2517d3f60e01b81526001600160a01b0382166004820152602481018390526044016107a5565b7ff0c57e16840df040f15088dc2f81fe391c3923bec73e23a9662efc9c229c6a0054600160401b900460ff1661145c57604051631afcd79f60e31b815260040160405180910390fd5b61172782611773565b6040516001600160a01b038316907fbc7cd75a20ee27fd9adebab32041f755214dbc6bffa90cc0225b39da2e5c2d3b905f90a280511561176b5761086082826117d6565b610afd611848565b806001600160a01b03163b5f036117a857604051634c9c8ce360e01b81526001600160a01b03821660048201526024016107a5565b5f80516020611caa83398151915280546001600160a01b0319166001600160a01b0392909216919091179055565b60605f80846001600160a01b0316846040516117f29190611c6e565b5f60405180830381855af49150503d805f811461182a576040519150601f19603f3d011682016040523d82523d5f602084013e61182f565b606091505b509150915061183f858383611867565b95945050505050565b341561145c5760405163b398979f60e01b815260040160405180910390fd5b60608261187c57611877826118c6565b6118bf565b815115801561189357506001600160a01b0384163b155b156118bc57604051639996b31560e01b81526001600160a01b03851660048201526024016107a5565b50805b9392505050565b8051156118d65780518082602001fd5b604051630a12f52160e11b815260040160405180910390fd5b5f602082840312156118ff575f80fd5b81356001600160e01b0319811681146118bf575f80fd5b5f60208284031215611926575f80fd5b5035919050565b6001600160a01b0381168114611337575f80fd5b5f8060408385031215611952575f80fd5b8235915060208301356119648161192d565b809150509250929050565b5f6020828403121561197f575f80fd5b81356118bf8161192d565b5f805f806080858703121561199d575f80fd5b84356119a88161192d565b966020860135965060408601359560600135945092505050565b634e487b7160e01b5f52604160045260245ffd5b5f80604083850312156119e7575f80fd5b82356119f28161192d565b9150602083013567ffffffffffffffff80821115611a0e575f80fd5b818501915085601f830112611a21575f80fd5b813581811115611a3357611a336119c2565b604051601f8201601f19908116603f01168101908382118183101715611a5b57611a5b6119c2565b81604052828152886020848701011115611a73575f80fd5b826020860160208301375f6020848301015280955050505050509250929050565b5f8060408385031215611aa5575f80fd5b8235611ab08161192d565b946020939093013593505050565b5f8060408385031215611acf575f80fd5b50508035926020909101359150565b5f5b83811015611af8578181015183820152602001611ae0565b50505f910152565b602081525f8251806020840152611b1e816040850160208701611ade565b601f01601f19169190910160400192915050565b5f805f805f8060c08789031215611b47575f80fd5b863595506020870135611b598161192d565b95989597505050506040840135936060810135936080820135935060a0909101359150565b5f60208284031215611b8e575f80fd5b815180151581146118bf575f80fd5b634e487b7160e01b5f52601160045260245ffd5b8082018082111561074957610749611b9d565b8181038181111561074957610749611b9d565b808202811582820484141761074957610749611b9d565b5f82611c0857634e487b7160e01b5f52601260045260245ffd5b500490565b6020808252602a908201527f737461727420626c6f636b206d75737420626520736d616c6c6572207468616e60408201526920656e6420626c6f636b60b01b606082015260800190565b5f60208284031215611c67575f80fd5b5051919050565b5f8251611c7f818460208701611ade565b919091019291505056fe589d473ba17c0f47d494622893831497bad25919b9afb8e33e9521b8963fccde360894a13ba1a3210667c828492db98dca3e2076cc3735a920a3ca505d382bbc02dd7bc7dec4dceedda775e58dd541e08a116c6c53815c0bd028192f7b626800a264697066735822122096de58014bdd5ec592072b961d757a51596ccdade23352a109984db5f0b3100a64736f6c63430008180033",
    "sourcePath": "d:/web3/B2Stake/src/B2Stake.sol",
    "compiler": {
        "name": "solc",
        "version": "0.8.24+commit.e11b9ed9"
    },
    "functionHashes": {
        "ADMIN_ROLE()": "75b238fc",
        "B2()": "dd57a76e",
        "BTC_PID()": "ee19d698",
        "DEFAULT_ADMIN_ROLE()": "a217fddf",
        "UPGRADE_INTERFACE_VERSION()": "ad3cb1cc",
        "UPGRADE_ROLE()": "b908afa8",
        "addPool(uint256,address,uint256,uint256,uint256,uint256)": "f9646aae",
        "authorizeUpgrader(address)": "4ca171dc",
        "authorizedUpgraders(address)": "6a3c1525",
        "b2PerBlock()": "28d18b13",
        "calculateReward(uint256,address)": "a18f07a0",
        "claimPaused()": "ab5e124a",
        "claimReward(uint256)": "ae169a50",
        "endBlock()": "083c6323",
        "getRoleAdmin(bytes32)": "248a9ca3",
        "grantRole(bytes32,address)": "2f2ff15d",
        "hasRole(bytes32,address)": "91d14854",
        "initialize(address,uint256,uint256,uint256)": "4ec81af1",
        "pause()": "8456cb59",
        "paused()": "5c975abb",
        "pools(uint256)": "ac4afa38",
        "proxiableUUID()": "52d1902d",
        "renounceRole(bytes32,address)": "36568abe",
        "revokeRole(bytes32,address)": "d547741f",
        "setB2(address)": "f0c1fd44",
        "setB2PerBlock(uint256)": "0a50f403",
        "setEndBlock(uint256)": "c713aa94",
        "setStartBlock(uint256)": "f35e4a6e",
        "stake(uint256,uint256)": "7b0472f0",
        "startBlock()": "48cd4cb1",
        "supportsInterface(bytes4)": "01ffc9a7",
        "unpause()": "3f4ba83a",
        "unstake(uint256,uint256)": "9e2c8a5b",
        "upgradeToAndCall(address,bytes)": "4f1ef286",
        "users(address,uint256)": "54a02f9e"
    },
    "gasEstimates": {
        "creation": {
            "codeDepositCost": "1491000",
            "executionCost": "infinite",
            "totalCost": "infinite"
        },
        "external": {
            "ADMIN_ROLE()": "infinite",
            "B2()": "2391",
            "BTC_PID()": "259",
            "DEFAULT_ADMIN_ROLE()": "260",
            "UPGRADE_INTERFACE_VERSION()": "infinite",
            "UPGRADE_ROLE()": "261",
            "addPool(uint256,address,uint256,uint256,uint256,uint256)": "122178",
            "authorizeUpgrader(address)": "infinite",
            "authorizedUpgraders(address)": "2622",
            "b2PerBlock()": "2340",
            "calculateReward(uint256,address)": "infinite",
            "claimPaused()": "2387",
            "claimReward(uint256)": "infinite",
            "endBlock()": "2363",
            "getRoleAdmin(bytes32)": "infinite",
            "grantRole(bytes32,address)": "infinite",
            "hasRole(bytes32,address)": "infinite",
            "initialize(address,uint256,uint256,uint256)": "infinite",
            "pause()": "infinite",
            "paused()": "2381",
            "pools(uint256)": "15404",
            "proxiableUUID()": "infinite",
            "renounceRole(bytes32,address)": "29182",
            "revokeRole(bytes32,address)": "infinite",
            "setB2(address)": "infinite",
            "setB2PerBlock(uint256)": "infinite",
            "setEndBlock(uint256)": "infinite",
            "setStartBlock(uint256)": "infinite",
            "stake(uint256,uint256)": "infinite",
            "startBlock()": "2340",
            "supportsInterface(bytes4)": "470",
            "unpause()": "infinite",
            "unstake(uint256,uint256)": "infinite",
            "upgradeToAndCall(address,bytes)": "infinite",
            "users(address,uint256)": "6936"
        },
        "internal": {
            "_authorizeUpgrade(address)": "infinite",
            "_updatePool(uint256)": "24334"
        }
    }
}